{
  "contractName": "CuraAnnonae",
  "abi": [
    {
      "inputs": [
        {
          "internalType": "address",
          "name": "_wallet",
          "type": "address"
        }
      ],
      "stateMutability": "nonpayable",
      "type": "constructor"
    },
    {
      "inputs": [],
      "name": "YFMSToken",
      "outputs": [
        {
          "internalType": "contract ERC20",
          "name": "",
          "type": "address"
        }
      ],
      "stateMutability": "view",
      "type": "function",
      "constant": true
    },
    {
      "inputs": [],
      "name": "currentDailyReward",
      "outputs": [
        {
          "internalType": "uint256",
          "name": "",
          "type": "uint256"
        }
      ],
      "stateMutability": "view",
      "type": "function",
      "constant": true
    },
    {
      "inputs": [],
      "name": "lastRewardUpdate",
      "outputs": [
        {
          "internalType": "uint256",
          "name": "",
          "type": "uint256"
        }
      ],
      "stateMutability": "view",
      "type": "function",
      "constant": true
    },
    {
      "inputs": [],
      "name": "numberOfVaults",
      "outputs": [
        {
          "internalType": "uint256",
          "name": "",
          "type": "uint256"
        }
      ],
      "stateMutability": "view",
      "type": "function",
      "constant": true
    },
    {
      "inputs": [],
      "name": "owner",
      "outputs": [
        {
          "internalType": "address",
          "name": "",
          "type": "address"
        }
      ],
      "stateMutability": "view",
      "type": "function",
      "constant": true
    },
    {
      "inputs": [],
      "name": "rewardsBalance",
      "outputs": [
        {
          "internalType": "uint256",
          "name": "",
          "type": "uint256"
        }
      ],
      "stateMutability": "view",
      "type": "function",
      "constant": true
    },
    {
      "inputs": [],
      "name": "getRewardsBalance",
      "outputs": [
        {
          "internalType": "uint256",
          "name": "",
          "type": "uint256"
        }
      ],
      "stateMutability": "view",
      "type": "function",
      "constant": true
    },
    {
      "inputs": [],
      "name": "getDailyReward",
      "outputs": [
        {
          "internalType": "uint256",
          "name": "",
          "type": "uint256"
        }
      ],
      "stateMutability": "view",
      "type": "function",
      "constant": true
    },
    {
      "inputs": [],
      "name": "getNumberOfVaults",
      "outputs": [
        {
          "internalType": "uint256",
          "name": "",
          "type": "uint256"
        }
      ],
      "stateMutability": "view",
      "type": "function",
      "constant": true
    },
    {
      "inputs": [
        {
          "internalType": "string",
          "name": "_vault",
          "type": "string"
        },
        {
          "internalType": "address",
          "name": "_user",
          "type": "address"
        }
      ],
      "name": "getUserBalanceInVault",
      "outputs": [
        {
          "internalType": "uint256",
          "name": "",
          "type": "uint256"
        }
      ],
      "stateMutability": "view",
      "type": "function",
      "constant": true
    },
    {
      "inputs": [],
      "name": "updateDailyReward",
      "outputs": [],
      "stateMutability": "nonpayable",
      "type": "function"
    },
    {
      "inputs": [
        {
          "internalType": "string",
          "name": "vault",
          "type": "string"
        },
        {
          "internalType": "address",
          "name": "who",
          "type": "address"
        },
        {
          "internalType": "address",
          "name": "user",
          "type": "address"
        },
        {
          "internalType": "uint256",
          "name": "value",
          "type": "uint256"
        }
      ],
      "name": "updateVaultData",
      "outputs": [],
      "stateMutability": "nonpayable",
      "type": "function"
    },
    {
      "inputs": [
        {
          "internalType": "string",
          "name": "name",
          "type": "string"
        }
      ],
      "name": "addVault",
      "outputs": [],
      "stateMutability": "nonpayable",
      "type": "function"
    },
    {
      "inputs": [
        {
          "internalType": "string",
          "name": "_vault",
          "type": "string"
        },
        {
          "internalType": "address",
          "name": "_receiver",
          "type": "address"
        },
        {
          "internalType": "uint256",
          "name": "_amount",
          "type": "uint256"
        }
      ],
      "name": "stake",
      "outputs": [
        {
          "internalType": "bool",
          "name": "",
          "type": "bool"
        }
      ],
      "stateMutability": "nonpayable",
      "type": "function"
    },
    {
      "inputs": [
        {
          "internalType": "string",
          "name": "_vault",
          "type": "string"
        },
        {
          "internalType": "address",
          "name": "_receiver",
          "type": "address"
        }
      ],
      "name": "unstake",
      "outputs": [],
      "stateMutability": "nonpayable",
      "type": "function"
    },
    {
      "inputs": [
        {
          "internalType": "address",
          "name": "vault",
          "type": "address"
        }
      ],
      "name": "distributeRewardsToVault",
      "outputs": [],
      "stateMutability": "nonpayable",
      "type": "function"
    }
  ],
  "bytecode": "0x6080604052600060045534801561001557600080fd5b506040516115103803806115108339818101604052602081101561003857600080fd5b810190808051906020019092919050505033600160006101000a81548173ffffffffffffffffffffffffffffffffffffffff021916908373ffffffffffffffffffffffffffffffffffffffff160217905550806000806101000a81548173ffffffffffffffffffffffffffffffffffffffff021916908373ffffffffffffffffffffffffffffffffffffffff16021790555050611436806100da6000396000f3fe608060405234801561001057600080fd5b50600436106101005760003560e01c8063a3c2710d11610097578063bb2f666c11610066578063bb2f666c14610465578063d3e0bc561461056a578063ee97a61614610588578063f85829341461068557610100565b8063a3c2710d1461031c578063adda10aa1461033a578063af218ded14610358578063b79959b11461037657610100565b8063218f2988116100d3578063218f2988146101bb5780637a32af7814610296578063858a135d146102b45780638da5cb5b146102d257610100565b8063021e63c1146101055780630b569f8b1461014f578063131f2e53146101595780631ac04cab14610177575b600080fd5b61010d610740565b604051808273ffffffffffffffffffffffffffffffffffffffff1673ffffffffffffffffffffffffffffffffffffffff16815260200191505060405180910390f35b610157610765565b005b6101616108e4565b6040518082815260200191505060405180910390f35b6101b96004803603602081101561018d57600080fd5b81019080803573ffffffffffffffffffffffffffffffffffffffff1690602001909291905050506108ea565b005b610294600480360360408110156101d157600080fd5b81019080803590602001906401000000008111156101ee57600080fd5b82018360208201111561020057600080fd5b8035906020019184600183028401116401000000008311171561022257600080fd5b91908080601f016020809104026020016040519081016040528093929190818152602001838380828437600081840152601f19601f820116905080830192505050505050509192919290803573ffffffffffffffffffffffffffffffffffffffff169060200190929190505050610a56565b005b61029e610bc1565b6040518082815260200191505060405180910390f35b6102bc610bc7565b6040518082815260200191505060405180910390f35b6102da610ca7565b604051808273ffffffffffffffffffffffffffffffffffffffff1673ffffffffffffffffffffffffffffffffffffffff16815260200191505060405180910390f35b610324610ccd565b6040518082815260200191505060405180910390f35b610342610cd3565b6040518082815260200191505060405180910390f35b610360610cdd565b6040518082815260200191505060405180910390f35b61044f6004803603604081101561038c57600080fd5b81019080803590602001906401000000008111156103a957600080fd5b8201836020820111156103bb57600080fd5b803590602001918460018302840111640100000000831117156103dd57600080fd5b91908080601f016020809104026020016040519081016040528093929190818152602001838380828437600081840152601f19601f820116905080830192505050505050509192919290803573ffffffffffffffffffffffffffffffffffffffff169060200190929190505050610ce3565b6040518082815260200191505060405180910390f35b6105686004803603608081101561047b57600080fd5b810190808035906020019064010000000081111561049857600080fd5b8201836020820111156104aa57600080fd5b803590602001918460018302840111640100000000831117156104cc57600080fd5b91908080601f016020809104026020016040519081016040528093929190818152602001838380828437600081840152601f19601f820116905080830192505050505050509192919290803573ffffffffffffffffffffffffffffffffffffffff169060200190929190803573ffffffffffffffffffffffffffffffffffffffff16906020019092919080359060200190929190505050610e47565b005b610572611017565b6040518082815260200191505060405180910390f35b61066b6004803603606081101561059e57600080fd5b81019080803590602001906401000000008111156105bb57600080fd5b8201836020820111156105cd57600080fd5b803590602001918460018302840111640100000000831117156105ef57600080fd5b91908080601f016020809104026020016040519081016040528093929190818152602001838380828437600081840152601f19601f820116905080830192505050505050509192919290803573ffffffffffffffffffffffffffffffffffffffff16906020019092919080359060200190929190505050611021565b604051808215151515815260200191505060405180910390f35b61073e6004803603602081101561069b57600080fd5b81019080803590602001906401000000008111156106b857600080fd5b8201836020820111156106ca57600080fd5b803590602001918460018302840111640100000000831117156106ec57600080fd5b91908080601f016020809104026020016040519081016040528093929190818152602001838380828437600081840152601f19601f820116905080830192505050505050509192919290505050611276565b005b6000809054906101000a900473ffffffffffffffffffffffffffffffffffffffff1681565b600160009054906101000a900473ffffffffffffffffffffffffffffffffffffffff1673ffffffffffffffffffffffffffffffffffffffff163373ffffffffffffffffffffffffffffffffffffffff16146107bf57600080fd5b60056107d66004544261139b90919063ffffffff16565b1015806107e557506000600454145b6107ee57600080fd5b4260048190555060286127106000809054906101000a900473ffffffffffffffffffffffffffffffffffffffff1673ffffffffffffffffffffffffffffffffffffffff166370a08231306040518263ffffffff1660e01b8152600401808273ffffffffffffffffffffffffffffffffffffffff1673ffffffffffffffffffffffffffffffffffffffff16815260200191505060206040518083038186803b15801561089857600080fd5b505afa1580156108ac573d6000803e3d6000fd5b505050506040513d60208110156108c257600080fd5b8101908080519060200190929190505050816108da57fe5b0402600581905550565b60035481565b600160009054906101000a900473ffffffffffffffffffffffffffffffffffffffff1673ffffffffffffffffffffffffffffffffffffffff163373ffffffffffffffffffffffffffffffffffffffff161461094457600080fd5b60006005541161095357600080fd5b600061096c6002546005546113bb90919063ffffffff16565b90506000809054906101000a900473ffffffffffffffffffffffffffffffffffffffff1673ffffffffffffffffffffffffffffffffffffffff1663a9059cbb83836040518363ffffffff1660e01b8152600401808373ffffffffffffffffffffffffffffffffffffffff1673ffffffffffffffffffffffffffffffffffffffff16815260200182815260200192505050602060405180830381600087803b158015610a1657600080fd5b505af1158015610a2a573d6000803e3d6000fd5b505050506040513d6020811015610a4057600080fd5b8101908080519060200190929190505050505050565b60006006836040518082805190602001908083835b60208310610a8e5780518252602082019150602081019050602083039250610a6b565b6001836020036101000a038019825116818451168082178552505050505050905001915050908152602001604051809103902060008373ffffffffffffffffffffffffffffffffffffffff1673ffffffffffffffffffffffffffffffffffffffff168152602001908152602001600020549050612710811015610b1057600080fd5b60006006846040518082805190602001908083835b60208310610b485780518252602082019150602081019050602083039250610b25565b6001836020036101000a038019825116818451168082178552505050505050905001915050908152602001604051809103902060008473ffffffffffffffffffffffffffffffffffffffff1673ffffffffffffffffffffffffffffffffffffffff16815260200190815260200160002081905550505050565b60025481565b60008060009054906101000a900473ffffffffffffffffffffffffffffffffffffffff1673ffffffffffffffffffffffffffffffffffffffff166370a08231306040518263ffffffff1660e01b8152600401808273ffffffffffffffffffffffffffffffffffffffff1673ffffffffffffffffffffffffffffffffffffffff16815260200191505060206040518083038186803b158015610c6757600080fd5b505afa158015610c7b573d6000803e3d6000fd5b505050506040513d6020811015610c9157600080fd5b8101908080519060200190929190505050905090565b600160009054906101000a900473ffffffffffffffffffffffffffffffffffffffff1681565b60045481565b6000600554905090565b60055481565b6000806006846040518082805190602001908083835b60208310610d1c5780518252602082019150602081019050602083039250610cf9565b6001836020036101000a038019825116818451168082178552505050505050905001915050908152602001604051809103902060008473ffffffffffffffffffffffffffffffffffffffff1673ffffffffffffffffffffffffffffffffffffffff168152602001908152602001600020541015610d9857600080fd5b6006836040518082805190602001908083835b60208310610dce5780518252602082019150602081019050602083039250610dab565b6001836020036101000a038019825116818451168082178552505050505050905001915050908152602001604051809103902060008373ffffffffffffffffffffffffffffffffffffffff1673ffffffffffffffffffffffffffffffffffffffff16815260200190815260200160002054905092915050565b600160009054906101000a900473ffffffffffffffffffffffffffffffffffffffff1673ffffffffffffffffffffffffffffffffffffffff168373ffffffffffffffffffffffffffffffffffffffff1614610ea157600080fd5b60008111610eae57600080fd5b610f67816006866040518082805190602001908083835b60208310610ee85780518252602082019150602081019050602083039250610ec5565b6001836020036101000a038019825116818451168082178552505050505050905001915050908152602001604051809103902060008573ffffffffffffffffffffffffffffffffffffffff1673ffffffffffffffffffffffffffffffffffffffff168152602001908152602001600020546113e190919063ffffffff16565b6006856040518082805190602001908083835b60208310610f9d5780518252602082019150602081019050602083039250610f7a565b6001836020036101000a038019825116818451168082178552505050505050905001915050908152602001604051809103902060008473ffffffffffffffffffffffffffffffffffffffff1673ffffffffffffffffffffffffffffffffffffffff1681526020019081526020016000208190555050505050565b6000600254905090565b6000816000809054906101000a900473ffffffffffffffffffffffffffffffffffffffff1673ffffffffffffffffffffffffffffffffffffffff166370a08231856040518263ffffffff1660e01b8152600401808273ffffffffffffffffffffffffffffffffffffffff1673ffffffffffffffffffffffffffffffffffffffff16815260200191505060206040518083038186803b1580156110c257600080fd5b505afa1580156110d6573d6000803e3d6000fd5b505050506040513d60208110156110ec57600080fd5b8101908080519060200190929190505050101561110857600080fd5b6111c1826006866040518082805190602001908083835b60208310611142578051825260208201915060208101905060208303925061111f565b6001836020036101000a038019825116818451168082178552505050505050905001915050908152602001604051809103902060008673ffffffffffffffffffffffffffffffffffffffff1673ffffffffffffffffffffffffffffffffffffffff168152602001908152602001600020546113e190919063ffffffff16565b6006856040518082805190602001908083835b602083106111f757805182526020820191506020810190506020830392506111d4565b6001836020036101000a038019825116818451168082178552505050505050905001915050908152602001604051809103902060008573ffffffffffffffffffffffffffffffffffffffff1673ffffffffffffffffffffffffffffffffffffffff16815260200190815260200160002081905550600190509392505050565b600160009054906101000a900473ffffffffffffffffffffffffffffffffffffffff1673ffffffffffffffffffffffffffffffffffffffff163373ffffffffffffffffffffffffffffffffffffffff16146112d057600080fd5b60006006826040518082805190602001908083835b6020831061130857805182526020820191506020810190506020830392506112e5565b6001836020036101000a038019825116818451168082178552505050505050905001915050908152602001604051809103902060003373ffffffffffffffffffffffffffffffffffffffff1673ffffffffffffffffffffffffffffffffffffffff1681526020019081526020016000208190555061139260016002546113e190919063ffffffff16565b60028190555050565b6000828211156113aa57600080fd5b600082840390508091505092915050565b60008082116113c957600080fd5b60008284816113d457fe5b0490508091505092915050565b6000808284019050838110156113f657600080fd5b809150509291505056fea26469706673582212201b385e5e48fcdf766e649b497068570b135a4558128427140958f03be1461cd664736f6c63430006080033",
  "immutableReferences": {},
  "source": "pragma solidity 0.6.8;\n\nlibrary SafeMath {\n  /**\n  * @dev Multiplies two unsigned integers, reverts on overflow.\n  */\n  function mul(uint256 a, uint256 b) internal pure returns (uint256) {\n    // Gas optimization: this is cheaper than requiring 'a' not being zero, but the\n    // benefit is lost if 'b' is also tested.\n    // See: https://github.com/OpenZeppelin/openzeppelin-solidity/pull/522\n    if (a == 0) {\n        return 0;\n    }\n\n    uint256 c = a * b;\n    require(c / a == b);\n\n    return c;\n  }\n\n  /**\n  * @dev Integer division of two unsigned integers truncating the quotient, reverts on division by zero.\n  */\n  function div(uint256 a, uint256 b) internal pure returns (uint256) {\n    // Solidity only automatically asserts when dividing by 0\n    require(b > 0);\n    uint256 c = a / b;\n    // assert(a == b * c + a % b); // There is no case in which this doesn't hold\n\n    return c;\n  }\n\n  /**\n  * @dev Subtracts two unsigned integers, reverts on overflow (i.e. if subtrahend is greater than minuend).\n  */\n  function sub(uint256 a, uint256 b) internal pure returns (uint256) {\n    require(b <= a);\n    uint256 c = a - b;\n\n    return c;\n  }\n\n  /**\n  * @dev Adds two unsigned integers, reverts on overflow.\n  */\n  function add(uint256 a, uint256 b) internal pure returns (uint256) {\n    uint256 c = a + b;\n    require(c >= a);\n\n    return c;\n  }\n\n  /**\n  * @dev Divides two unsigned integers and returns the remainder (unsigned integer modulo),\n  * reverts when dividing by zero.\n  */\n  function mod(uint256 a, uint256 b) internal pure returns (uint256) {\n    require(b != 0);\n    return a % b;\n  }\n}\n\ninterface ERC20 {\n  function balanceOf(address who) external view returns (uint256);\n  function transfer(address to, uint value) external  returns (bool success);\n  function transferFrom(address from, address to, uint value) external returns (bool success);\n  function approve(address spender, uint amount) external returns (bool success);\n}\n\n// https://en.wikipedia.org/wiki/Cura_Annonae\ncontract CuraAnnonae {\n  using SafeMath for uint256;\n\n  // variables.\n  ERC20 public YFMSToken;\n  address public owner;\n  uint256 public numberOfVaults;\n  uint256 public rewardsBalance;\n  uint256 public lastRewardUpdate = 0;\n  uint256 public currentDailyReward;\n\n  // mappings.\n  mapping(string => mapping(address => uint256)) internal vaults_data; // { VaultName: { UserAddress: value }}\n\n  constructor(address _wallet) public {\n    owner = msg.sender;\n    YFMSToken = ERC20(_wallet);\n  }\n\n  // view the number of tokens left to distribute.\n  function getRewardsBalance() public view returns (uint256) {\n    return YFMSToken.balanceOf(address(this));\n  }\n\n  // view the current daily reward for all vaults.\n  function getDailyReward() public view returns (uint256) {\n    return currentDailyReward;\n  }\n\n  function getNumberOfVaults() public view returns (uint256) {\n    return numberOfVaults;\n  }\n\n  // get user balance in specific vault.\n  function getUserBalanceInVault(string memory _vault, address _user) public view returns (uint256) {\n    require(vaults_data[_vault][_user] >= 0);\n    return vaults_data[_vault][_user];\n  }\n\n  // calculate the daily reward for all vaults.\n  function updateDailyReward() public {\n    require(msg.sender == owner);\n    require(now.sub(lastRewardUpdate) >= 5 seconds || lastRewardUpdate == 0);\n    lastRewardUpdate = now;\n    currentDailyReward = YFMSToken.balanceOf(address(this)) / 10000 * 40;\n  }\n\n  // staking rewards distributed.\n  function updateVaultData(string memory vault, address who, address user, uint256 value) public {\n    require(who == owner);\n    require(value > 0);\n    vaults_data[vault][user] = vaults_data[vault][user].add(value);\n  }\n\n  // add a vault.\n  function addVault(string memory name) public {\n    require(msg.sender == owner);\n    // initialize new vault.\n    vaults_data[name][msg.sender] = 0; \n    // increment number of vaults.\n    numberOfVaults = numberOfVaults.add(1);\n  }\n\n  // enables users to stake stable coins/ YFMS from their respective vaults.\n  function stake(string memory _vault, address _receiver, uint256 _amount) public returns (bool) {\n    // ensure it is a valid amount.\n    require(YFMSToken.balanceOf(_receiver) >= _amount);\n    // update mapping.\n    vaults_data[_vault][_receiver] = vaults_data[_vault][_receiver].add(_amount);\n    return true;\n  }\n\n  // enables users to unstake staked coins at a 2.5% cost (tokens will be burned).\n  function unstake(string memory _vault, address _receiver) public {\n    uint256 stakedAmount = vaults_data[_vault][_receiver];\n    require(stakedAmount >= 10000); // won't break divison below.\n    // remove staked balance.\n    vaults_data[_vault][_receiver] = 0;\n  }\n\n  function distributeRewardsToVault(address vault) public {\n    require(msg.sender == owner);\n    require(currentDailyReward > 0);\n    // perhaps an additional require to ensure this vault hasn't already received rewards today.\n    // determine how many tokens to send to vault.\n    uint256 rewards = currentDailyReward.div(numberOfVaults);\n    YFMSToken.transfer(vault, rewards);\n  }\n}\n",
  "sourcePath": "/home/spyder/Programming/Projects/YFMS/yfms-core/src/contracts/CuraAnnonae.sol",
  "compiler": {
    "name": "solc",
    "version": "0.6.8+commit.0bbfe453.Emscripten.clang"
  },
  "schemaVersion": "3.2.3",
  "updatedAt": "2020-09-25T00:32:33.770Z",
  "networkType": "ethereum",
  "devdoc": {
    "methods": {}
  },
  "userdoc": {
    "methods": {}
  }
}