{
  "contractName": "CuraAnnonae",
  "abi": [
    {
      "inputs": [
        {
          "internalType": "address",
          "name": "_wallet",
          "type": "address"
        }
      ],
      "stateMutability": "nonpayable",
      "type": "constructor"
    },
    {
      "inputs": [],
      "name": "YFMSToken",
      "outputs": [
        {
          "internalType": "contract ERC20",
          "name": "",
          "type": "address"
        }
      ],
      "stateMutability": "view",
      "type": "function",
      "constant": true
    },
    {
      "inputs": [],
      "name": "numberOfVaults",
      "outputs": [
        {
          "internalType": "uint256",
          "name": "",
          "type": "uint256"
        }
      ],
      "stateMutability": "view",
      "type": "function",
      "constant": true
    },
    {
      "inputs": [],
      "name": "owner",
      "outputs": [
        {
          "internalType": "address",
          "name": "",
          "type": "address"
        }
      ],
      "stateMutability": "view",
      "type": "function",
      "constant": true
    },
    {
      "inputs": [],
      "name": "rewardsBalance",
      "outputs": [
        {
          "internalType": "uint256",
          "name": "",
          "type": "uint256"
        }
      ],
      "stateMutability": "view",
      "type": "function",
      "constant": true
    },
    {
      "inputs": [],
      "name": "getRewardsBalance",
      "outputs": [
        {
          "internalType": "uint256",
          "name": "",
          "type": "uint256"
        }
      ],
      "stateMutability": "view",
      "type": "function",
      "constant": true
    },
    {
      "inputs": [],
      "name": "getDailyReward",
      "outputs": [
        {
          "internalType": "uint256",
          "name": "",
          "type": "uint256"
        }
      ],
      "stateMutability": "view",
      "type": "function",
      "constant": true
    },
    {
      "inputs": [
        {
          "internalType": "address",
          "name": "who",
          "type": "address"
        },
        {
          "internalType": "uint256",
          "name": "amount",
          "type": "uint256"
        }
      ],
      "name": "distributeRewardsToVaults",
      "outputs": [],
      "stateMutability": "nonpayable",
      "type": "function"
    },
    {
      "inputs": [],
      "name": "getNumberOfVaults",
      "outputs": [
        {
          "internalType": "uint256",
          "name": "",
          "type": "uint256"
        }
      ],
      "stateMutability": "view",
      "type": "function",
      "constant": true
    },
    {
      "inputs": [
        {
          "internalType": "string",
          "name": "_vault",
          "type": "string"
        },
        {
          "internalType": "address",
          "name": "_user",
          "type": "address"
        }
      ],
      "name": "getUserBalanceInVault",
      "outputs": [
        {
          "internalType": "uint256",
          "name": "",
          "type": "uint256"
        }
      ],
      "stateMutability": "view",
      "type": "function",
      "constant": true
    },
    {
      "inputs": [
        {
          "internalType": "uint256",
          "name": "_burnFee",
          "type": "uint256"
        }
      ],
      "name": "getBurnFee",
      "outputs": [
        {
          "internalType": "uint256",
          "name": "",
          "type": "uint256"
        }
      ],
      "stateMutability": "view",
      "type": "function",
      "constant": true
    },
    {
      "inputs": [
        {
          "internalType": "string",
          "name": "_vault",
          "type": "string"
        },
        {
          "internalType": "address",
          "name": "_sender",
          "type": "address"
        },
        {
          "internalType": "uint256",
          "name": "_amount",
          "type": "uint256"
        }
      ],
      "name": "stake",
      "outputs": [
        {
          "internalType": "bool",
          "name": "",
          "type": "bool"
        }
      ],
      "stateMutability": "nonpayable",
      "type": "function"
    },
    {
      "inputs": [
        {
          "internalType": "string",
          "name": "_vault",
          "type": "string"
        },
        {
          "internalType": "address",
          "name": "_sender",
          "type": "address"
        }
      ],
      "name": "unstake",
      "outputs": [],
      "stateMutability": "nonpayable",
      "type": "function"
    },
    {
      "inputs": [
        {
          "internalType": "string",
          "name": "name",
          "type": "string"
        }
      ],
      "name": "addVault",
      "outputs": [],
      "stateMutability": "nonpayable",
      "type": "function"
    }
  ],
  "bytecode": "0x608060405234801561001057600080fd5b506040516111b23803806111b28339818101604052602081101561003357600080fd5b810190808051906020019092919050505033600160006101000a81548173ffffffffffffffffffffffffffffffffffffffff021916908373ffffffffffffffffffffffffffffffffffffffff160217905550806000806101000a81548173ffffffffffffffffffffffffffffffffffffffff021916908373ffffffffffffffffffffffffffffffffffffffff160217905550506110dd806100d56000396000f3fe608060405234801561001057600080fd5b50600436106100cf5760003560e01c80638da5cb5b1161008c578063b79959b111610066578063b79959b11461034b578063d3e0bc561461043a578063ee97a61614610458578063f858293414610555576100cf565b80638da5cb5b146102a1578063ad20d2e6146102eb578063adda10aa1461032d576100cf565b8063021e63c1146100d4578063131f2e531461011e578063218f29881461013c578063631c87c0146102175780637a32af7814610265578063858a135d14610283575b600080fd5b6100dc610610565b604051808273ffffffffffffffffffffffffffffffffffffffff1673ffffffffffffffffffffffffffffffffffffffff16815260200191505060405180910390f35b610126610635565b6040518082815260200191505060405180910390f35b6102156004803603604081101561015257600080fd5b810190808035906020019064010000000081111561016f57600080fd5b82018360208201111561018157600080fd5b803590602001918460018302840111640100000000831117156101a357600080fd5b91908080601f016020809104026020016040519081016040528093929190818152602001838380828437600081840152601f19601f820116905080830192505050505050509192919290803573ffffffffffffffffffffffffffffffffffffffff16906020019092919050505061063b565b005b6102636004803603604081101561022d57600080fd5b81019080803573ffffffffffffffffffffffffffffffffffffffff169060200190929190803590602001909291905050506107a6565b005b61026d6108e8565b6040518082815260200191505060405180910390f35b61028b6108ee565b6040518082815260200191505060405180910390f35b6102a96109ce565b604051808273ffffffffffffffffffffffffffffffffffffffff1673ffffffffffffffffffffffffffffffffffffffff16815260200191505060405180910390f35b6103176004803603602081101561030157600080fd5b81019080803590602001909291905050506109f4565b6040518082815260200191505060405180910390f35b6103356109fe565b6040518082815260200191505060405180910390f35b6104246004803603604081101561036157600080fd5b810190808035906020019064010000000081111561037e57600080fd5b82018360208201111561039057600080fd5b803590602001918460018302840111640100000000831117156103b257600080fd5b91908080601f016020809104026020016040519081016040528093929190818152602001838380828437600081840152601f19601f820116905080830192505050505050509192919290803573ffffffffffffffffffffffffffffffffffffffff169060200190929190505050610b46565b6040518082815260200191505060405180910390f35b610442610caa565b6040518082815260200191505060405180910390f35b61053b6004803603606081101561046e57600080fd5b810190808035906020019064010000000081111561048b57600080fd5b82018360208201111561049d57600080fd5b803590602001918460018302840111640100000000831117156104bf57600080fd5b91908080601f016020809104026020016040519081016040528093929190818152602001838380828437600081840152601f19601f820116905080830192505050505050509192919290803573ffffffffffffffffffffffffffffffffffffffff16906020019092919080359060200190929190505050610d0e565b604051808215151515815260200191505060405180910390f35b61060e6004803603602081101561056b57600080fd5b810190808035906020019064010000000081111561058857600080fd5b82018360208201111561059a57600080fd5b803590602001918460018302840111640100000000831117156105bc57600080fd5b91908080601f016020809104026020016040519081016040528093929190818152602001838380828437600081840152601f19601f820116905080830192505050505050509192919290505050610f63565b005b6000809054906101000a900473ffffffffffffffffffffffffffffffffffffffff1681565b60035481565b60006004836040518082805190602001908083835b602083106106735780518252602082019150602081019050602083039250610650565b6001836020036101000a038019825116818451168082178552505050505050905001915050908152602001604051809103902060008373ffffffffffffffffffffffffffffffffffffffff1673ffffffffffffffffffffffffffffffffffffffff1681526020019081526020016000205490506127108110156106f557600080fd5b60006004846040518082805190602001908083835b6020831061072d578051825260208201915060208101905060208303925061070a565b6001836020036101000a038019825116818451168082178552505050505050905001915050908152602001604051809103902060008473ffffffffffffffffffffffffffffffffffffffff1673ffffffffffffffffffffffffffffffffffffffff16815260200190815260200160002081905550505050565b600160009054906101000a900473ffffffffffffffffffffffffffffffffffffffff1673ffffffffffffffffffffffffffffffffffffffff163373ffffffffffffffffffffffffffffffffffffffff161461080057600080fd5b6000809054906101000a900473ffffffffffffffffffffffffffffffffffffffff1673ffffffffffffffffffffffffffffffffffffffff1663a9059cbb83836040518363ffffffff1660e01b8152600401808373ffffffffffffffffffffffffffffffffffffffff1673ffffffffffffffffffffffffffffffffffffffff16815260200182815260200192505050602060405180830381600087803b1580156108a857600080fd5b505af11580156108bc573d6000803e3d6000fd5b505050506040513d60208110156108d257600080fd5b8101908080519060200190929190505050505050565b60025481565b60008060009054906101000a900473ffffffffffffffffffffffffffffffffffffffff1673ffffffffffffffffffffffffffffffffffffffff166370a08231306040518263ffffffff1660e01b8152600401808273ffffffffffffffffffffffffffffffffffffffff1673ffffffffffffffffffffffffffffffffffffffff16815260200191505060206040518083038186803b15801561098e57600080fd5b505afa1580156109a2573d6000803e3d6000fd5b505050506040513d60208110156109b857600080fd5b8101908080519060200190929190505050905090565b600160009054906101000a900473ffffffffffffffffffffffffffffffffffffffff1681565b6000819050919050565b6000600160009054906101000a900473ffffffffffffffffffffffffffffffffffffffff1673ffffffffffffffffffffffffffffffffffffffff163373ffffffffffffffffffffffffffffffffffffffff1614610a5a57600080fd5b60286127106000809054906101000a900473ffffffffffffffffffffffffffffffffffffffff1673ffffffffffffffffffffffffffffffffffffffff166370a08231306040518263ffffffff1660e01b8152600401808273ffffffffffffffffffffffffffffffffffffffff1673ffffffffffffffffffffffffffffffffffffffff16815260200191505060206040518083038186803b158015610afd57600080fd5b505afa158015610b11573d6000803e3d6000fd5b505050506040513d6020811015610b2757600080fd5b810190808051906020019092919050505081610b3f57fe5b0402905090565b6000806004846040518082805190602001908083835b60208310610b7f5780518252602082019150602081019050602083039250610b5c565b6001836020036101000a038019825116818451168082178552505050505050905001915050908152602001604051809103902060008473ffffffffffffffffffffffffffffffffffffffff1673ffffffffffffffffffffffffffffffffffffffff168152602001908152602001600020541015610bfb57600080fd5b6004836040518082805190602001908083835b60208310610c315780518252602082019150602081019050602083039250610c0e565b6001836020036101000a038019825116818451168082178552505050505050905001915050908152602001604051809103902060008373ffffffffffffffffffffffffffffffffffffffff1673ffffffffffffffffffffffffffffffffffffffff16815260200190815260200160002054905092915050565b6000600160009054906101000a900473ffffffffffffffffffffffffffffffffffffffff1673ffffffffffffffffffffffffffffffffffffffff163373ffffffffffffffffffffffffffffffffffffffff1614610d0657600080fd5b600254905090565b6000816000809054906101000a900473ffffffffffffffffffffffffffffffffffffffff1673ffffffffffffffffffffffffffffffffffffffff166370a08231856040518263ffffffff1660e01b8152600401808273ffffffffffffffffffffffffffffffffffffffff1673ffffffffffffffffffffffffffffffffffffffff16815260200191505060206040518083038186803b158015610daf57600080fd5b505afa158015610dc3573d6000803e3d6000fd5b505050506040513d6020811015610dd957600080fd5b81019080805190602001909291905050501015610df557600080fd5b610eae826004866040518082805190602001908083835b60208310610e2f5780518252602082019150602081019050602083039250610e0c565b6001836020036101000a038019825116818451168082178552505050505050905001915050908152602001604051809103902060008673ffffffffffffffffffffffffffffffffffffffff1673ffffffffffffffffffffffffffffffffffffffff1681526020019081526020016000205461108890919063ffffffff16565b6004856040518082805190602001908083835b60208310610ee45780518252602082019150602081019050602083039250610ec1565b6001836020036101000a038019825116818451168082178552505050505050905001915050908152602001604051809103902060008573ffffffffffffffffffffffffffffffffffffffff1673ffffffffffffffffffffffffffffffffffffffff16815260200190815260200160002081905550600190509392505050565b600160009054906101000a900473ffffffffffffffffffffffffffffffffffffffff1673ffffffffffffffffffffffffffffffffffffffff163373ffffffffffffffffffffffffffffffffffffffff1614610fbd57600080fd5b60006004826040518082805190602001908083835b60208310610ff55780518252602082019150602081019050602083039250610fd2565b6001836020036101000a038019825116818451168082178552505050505050905001915050908152602001604051809103902060003373ffffffffffffffffffffffffffffffffffffffff1673ffffffffffffffffffffffffffffffffffffffff1681526020019081526020016000208190555061107f600160025461108890919063ffffffff16565b60028190555050565b60008082840190508381101561109d57600080fd5b809150509291505056fea2646970667358221220cd5be7490347f5b430f28665e38b1a3f3257c839b534d632336ca0397223d84f64736f6c63430006000033",
  "source": "pragma solidity 0.6.0;\n\nlibrary SafeMath {\n  /**\n  * @dev Multiplies two unsigned integers, reverts on overflow.\n  */\n  function mul(uint256 a, uint256 b) internal pure returns (uint256) {\n    // Gas optimization: this is cheaper than requiring 'a' not being zero, but the\n    // benefit is lost if 'b' is also tested.\n    // See: https://github.com/OpenZeppelin/openzeppelin-solidity/pull/522\n    if (a == 0) {\n        return 0;\n    }\n\n    uint256 c = a * b;\n    require(c / a == b);\n\n    return c;\n  }\n\n  /**\n  * @dev Integer division of two unsigned integers truncating the quotient, reverts on division by zero.\n  */\n  function div(uint256 a, uint256 b) internal pure returns (uint256) {\n    // Solidity only automatically asserts when dividing by 0\n    require(b > 0);\n    uint256 c = a / b;\n    // assert(a == b * c + a % b); // There is no case in which this doesn't hold\n\n    return c;\n  }\n\n  /**\n  * @dev Subtracts two unsigned integers, reverts on overflow (i.e. if subtrahend is greater than minuend).\n  */\n  function sub(uint256 a, uint256 b) internal pure returns (uint256) {\n    require(b <= a);\n    uint256 c = a - b;\n\n    return c;\n  }\n\n  /**\n  * @dev Adds two unsigned integers, reverts on overflow.\n  */\n  function add(uint256 a, uint256 b) internal pure returns (uint256) {\n    uint256 c = a + b;\n    require(c >= a);\n\n    return c;\n  }\n\n  /**\n  * @dev Divides two unsigned integers and returns the remainder (unsigned integer modulo),\n  * reverts when dividing by zero.\n  */\n  function mod(uint256 a, uint256 b) internal pure returns (uint256) {\n    require(b != 0);\n    return a % b;\n  }\n}\n\ninterface ERC20 {\n  function balanceOf(address who) external view returns (uint256);\n  function transfer(address to, uint value) external  returns (bool success);\n  function transferFrom(address from, address to, uint value) external returns (bool success);\n}\n\n// https://en.wikipedia.org/wiki/Cura_Annonae\ncontract CuraAnnonae {\n  using SafeMath for uint256;\n\n  // variables.\n  ERC20 public YFMSToken;\n  address public owner;\n  uint256 public numberOfVaults;\n  uint256 public rewardsBalance;\n\n  // mappings.\n  mapping(string => mapping(address => uint256)) internal vaults_data; // { VaultName: { UserAddress: value }}\n\n  constructor(address _wallet) public {\n    owner = msg.sender;\n    YFMSToken = ERC20(_wallet);\n  }\n\n  // view the number of tokens left to distribute.\n  function getRewardsBalance() public view returns (uint256) {\n    return YFMSToken.balanceOf(address(this));\n  }\n\n  // calculate the daily reward.\n  function getDailyReward() public view returns (uint256) {\n    require(msg.sender == owner);\n    return YFMSToken.balanceOf(address(this)) / 10000 * 40;\n  }\n\n  function distributeRewardsToVaults(address who, uint256 amount) public {\n    require(msg.sender == owner);\n    YFMSToken.transfer(who, amount);\n  }\n\n  function getNumberOfVaults() public view returns (uint256) {\n    require(msg.sender == owner);\n    return numberOfVaults;\n  }\n\n  // get user balance in specific vault.\n  function getUserBalanceInVault(string memory _vault, address _user) public view returns (uint256) {\n    require(vaults_data[_vault][_user] >= 0);\n    return vaults_data[_vault][_user];\n  }\n\n  function getBurnFee(uint256 _burnFee) public view returns (uint256) {\n    return _burnFee;\n  }\n\n  // enables users to stake stable coins/ YFMS from their respective vaults.\n  function stake(string memory _vault, address _sender, uint256 _amount) public returns (bool) {\n    // ensure it is a valid amount.\n    require(YFMSToken.balanceOf(_sender) >= _amount);\n    // update mapping.\n    vaults_data[_vault][_sender] = vaults_data[_vault][_sender].add(_amount);\n    return true;\n  }\n\n  // enables users to unstake staked coins at a 2.5% cost (tokens will be burned).\n  function unstake(string memory _vault, address _sender) public {\n    uint256 stakedAmount = vaults_data[_vault][_sender];\n    require(stakedAmount >= 10000); // won't break divison below.\n    // remove staked balance.\n    vaults_data[_vault][_sender] = 0;\n  }\n\n  // add a vault.\n  function addVault(string memory name) public {\n    require(msg.sender == owner);\n    // initialize new vault.\n    vaults_data[name][msg.sender] = 0; \n    // increment number of vaults.\n    numberOfVaults = numberOfVaults.add(1);\n  }\n}\n",
  "sourcePath": "/home/spyder/Programming/Projects/YFMS/yfms-core/src/contracts/CuraAnnonae.sol",
  "compiler": {
    "name": "solc",
    "version": "0.6.0+commit.26b70077.Emscripten.clang"
  },
  "schemaVersion": "3.2.3",
  "updatedAt": "2020-09-22T17:11:13.090Z",
  "networkType": "ethereum",
  "devdoc": {
    "methods": {}
  },
  "userdoc": {
    "methods": {}
  }
}