{
  "contractName": "CuraAnnonae",
  "abi": [
    {
      "inputs": [
        {
          "internalType": "address",
          "name": "_wallet",
          "type": "address"
        }
      ],
      "stateMutability": "nonpayable",
      "type": "constructor"
    },
    {
      "inputs": [],
      "name": "YFMSToken",
      "outputs": [
        {
          "internalType": "contract ERC20",
          "name": "",
          "type": "address"
        }
      ],
      "stateMutability": "view",
      "type": "function",
      "constant": true
    },
    {
      "inputs": [],
      "name": "numberOfVaults",
      "outputs": [
        {
          "internalType": "uint256",
          "name": "",
          "type": "uint256"
        }
      ],
      "stateMutability": "view",
      "type": "function",
      "constant": true
    },
    {
      "inputs": [],
      "name": "owner",
      "outputs": [
        {
          "internalType": "address",
          "name": "",
          "type": "address"
        }
      ],
      "stateMutability": "view",
      "type": "function",
      "constant": true
    },
    {
      "inputs": [],
      "name": "rewardsBalance",
      "outputs": [
        {
          "internalType": "uint256",
          "name": "",
          "type": "uint256"
        }
      ],
      "stateMutability": "view",
      "type": "function",
      "constant": true
    },
    {
      "inputs": [],
      "name": "getRewardsBalance",
      "outputs": [
        {
          "internalType": "uint256",
          "name": "",
          "type": "uint256"
        }
      ],
      "stateMutability": "view",
      "type": "function",
      "constant": true
    },
    {
      "inputs": [],
      "name": "getDailyReward",
      "outputs": [
        {
          "internalType": "uint256",
          "name": "",
          "type": "uint256"
        }
      ],
      "stateMutability": "view",
      "type": "function",
      "constant": true
    },
    {
      "inputs": [],
      "name": "getNumberOfVaults",
      "outputs": [
        {
          "internalType": "uint256",
          "name": "",
          "type": "uint256"
        }
      ],
      "stateMutability": "view",
      "type": "function",
      "constant": true
    },
    {
      "inputs": [
        {
          "internalType": "string",
          "name": "_vault",
          "type": "string"
        },
        {
          "internalType": "address",
          "name": "_user",
          "type": "address"
        }
      ],
      "name": "getUserBalanceInVault",
      "outputs": [
        {
          "internalType": "uint256",
          "name": "",
          "type": "uint256"
        }
      ],
      "stateMutability": "view",
      "type": "function",
      "constant": true
    },
    {
      "inputs": [
        {
          "internalType": "uint256",
          "name": "_burnFee",
          "type": "uint256"
        }
      ],
      "name": "getBurnFee",
      "outputs": [
        {
          "internalType": "uint256",
          "name": "",
          "type": "uint256"
        }
      ],
      "stateMutability": "view",
      "type": "function",
      "constant": true
    },
    {
      "inputs": [
        {
          "internalType": "string",
          "name": "_vault",
          "type": "string"
        },
        {
          "internalType": "address",
          "name": "_sender",
          "type": "address"
        },
        {
          "internalType": "uint256",
          "name": "_amount",
          "type": "uint256"
        }
      ],
      "name": "stake",
      "outputs": [
        {
          "internalType": "bool",
          "name": "",
          "type": "bool"
        }
      ],
      "stateMutability": "nonpayable",
      "type": "function"
    },
    {
      "inputs": [
        {
          "internalType": "string",
          "name": "_vault",
          "type": "string"
        },
        {
          "internalType": "address",
          "name": "_sender",
          "type": "address"
        }
      ],
      "name": "unstake",
      "outputs": [],
      "stateMutability": "nonpayable",
      "type": "function"
    },
    {
      "inputs": [
        {
          "internalType": "string",
          "name": "name",
          "type": "string"
        }
      ],
      "name": "addVault",
      "outputs": [],
      "stateMutability": "nonpayable",
      "type": "function"
    }
  ],
  "bytecode": "0x608060405234801561001057600080fd5b5060405161101b38038061101b8339818101604052602081101561003357600080fd5b810190808051906020019092919050505033600160006101000a81548173ffffffffffffffffffffffffffffffffffffffff021916908373ffffffffffffffffffffffffffffffffffffffff160217905550806000806101000a81548173ffffffffffffffffffffffffffffffffffffffff021916908373ffffffffffffffffffffffffffffffffffffffff16021790555050610f46806100d56000396000f3fe608060405234801561001057600080fd5b50600436106100b45760003560e01c8063ad20d2e611610071578063ad20d2e614610282578063adda10aa146102c4578063b79959b1146102e2578063d3e0bc56146103d1578063ee97a616146103ef578063f8582934146104ec576100b4565b8063021e63c1146100b9578063131f2e5314610103578063218f2988146101215780637a32af78146101fc578063858a135d1461021a5780638da5cb5b14610238575b600080fd5b6100c16105a7565b604051808273ffffffffffffffffffffffffffffffffffffffff1673ffffffffffffffffffffffffffffffffffffffff16815260200191505060405180910390f35b61010b6105cc565b6040518082815260200191505060405180910390f35b6101fa6004803603604081101561013757600080fd5b810190808035906020019064010000000081111561015457600080fd5b82018360208201111561016657600080fd5b8035906020019184600183028401116401000000008311171561018857600080fd5b91908080601f016020809104026020016040519081016040528093929190818152602001838380828437600081840152601f19601f820116905080830192505050505050509192919290803573ffffffffffffffffffffffffffffffffffffffff1690602001909291905050506105d2565b005b610204610751565b6040518082815260200191505060405180910390f35b610222610757565b6040518082815260200191505060405180910390f35b610240610837565b604051808273ffffffffffffffffffffffffffffffffffffffff1673ffffffffffffffffffffffffffffffffffffffff16815260200191505060405180910390f35b6102ae6004803603602081101561029857600080fd5b810190808035906020019092919050505061085d565b6040518082815260200191505060405180910390f35b6102cc610867565b6040518082815260200191505060405180910390f35b6103bb600480360360408110156102f857600080fd5b810190808035906020019064010000000081111561031557600080fd5b82018360208201111561032757600080fd5b8035906020019184600183028401116401000000008311171561034957600080fd5b91908080601f016020809104026020016040519081016040528093929190818152602001838380828437600081840152601f19601f820116905080830192505050505050509192919290803573ffffffffffffffffffffffffffffffffffffffff1690602001909291905050506109af565b6040518082815260200191505060405180910390f35b6103d9610b13565b6040518082815260200191505060405180910390f35b6104d26004803603606081101561040557600080fd5b810190808035906020019064010000000081111561042257600080fd5b82018360208201111561043457600080fd5b8035906020019184600183028401116401000000008311171561045657600080fd5b91908080601f016020809104026020016040519081016040528093929190818152602001838380828437600081840152601f19601f820116905080830192505050505050509192919290803573ffffffffffffffffffffffffffffffffffffffff16906020019092919080359060200190929190505050610b77565b604051808215151515815260200191505060405180910390f35b6105a56004803603602081101561050257600080fd5b810190808035906020019064010000000081111561051f57600080fd5b82018360208201111561053157600080fd5b8035906020019184600183028401116401000000008311171561055357600080fd5b91908080601f016020809104026020016040519081016040528093929190818152602001838380828437600081840152601f19601f820116905080830192505050505050509192919290505050610dcc565b005b6000809054906101000a900473ffffffffffffffffffffffffffffffffffffffff1681565b60035481565b60006004836040518082805190602001908083835b6020831061060a57805182526020820191506020810190506020830392506105e7565b6001836020036101000a038019825116818451168082178552505050505050905001915050908152602001604051809103902060008373ffffffffffffffffffffffffffffffffffffffff1673ffffffffffffffffffffffffffffffffffffffff16815260200190815260200160002054905061271081101561068c57600080fd5b60006019612710838161069b57fe5b0402905060006004856040518082805190602001908083835b602083106106d757805182526020820191506020810190506020830392506106b4565b6001836020036101000a038019825116818451168082178552505050505050905001915050908152602001604051809103902060008573ffffffffffffffffffffffffffffffffffffffff1673ffffffffffffffffffffffffffffffffffffffff1681526020019081526020016000208190555050505050565b60025481565b60008060009054906101000a900473ffffffffffffffffffffffffffffffffffffffff1673ffffffffffffffffffffffffffffffffffffffff166370a08231306040518263ffffffff1660e01b8152600401808273ffffffffffffffffffffffffffffffffffffffff1673ffffffffffffffffffffffffffffffffffffffff16815260200191505060206040518083038186803b1580156107f757600080fd5b505afa15801561080b573d6000803e3d6000fd5b505050506040513d602081101561082157600080fd5b8101908080519060200190929190505050905090565b600160009054906101000a900473ffffffffffffffffffffffffffffffffffffffff1681565b6000819050919050565b6000600160009054906101000a900473ffffffffffffffffffffffffffffffffffffffff1673ffffffffffffffffffffffffffffffffffffffff163373ffffffffffffffffffffffffffffffffffffffff16146108c357600080fd5b60286127106000809054906101000a900473ffffffffffffffffffffffffffffffffffffffff1673ffffffffffffffffffffffffffffffffffffffff166370a08231306040518263ffffffff1660e01b8152600401808273ffffffffffffffffffffffffffffffffffffffff1673ffffffffffffffffffffffffffffffffffffffff16815260200191505060206040518083038186803b15801561096657600080fd5b505afa15801561097a573d6000803e3d6000fd5b505050506040513d602081101561099057600080fd5b8101908080519060200190929190505050816109a857fe5b0402905090565b6000806004846040518082805190602001908083835b602083106109e857805182526020820191506020810190506020830392506109c5565b6001836020036101000a038019825116818451168082178552505050505050905001915050908152602001604051809103902060008473ffffffffffffffffffffffffffffffffffffffff1673ffffffffffffffffffffffffffffffffffffffff168152602001908152602001600020541015610a6457600080fd5b6004836040518082805190602001908083835b60208310610a9a5780518252602082019150602081019050602083039250610a77565b6001836020036101000a038019825116818451168082178552505050505050905001915050908152602001604051809103902060008373ffffffffffffffffffffffffffffffffffffffff1673ffffffffffffffffffffffffffffffffffffffff16815260200190815260200160002054905092915050565b6000600160009054906101000a900473ffffffffffffffffffffffffffffffffffffffff1673ffffffffffffffffffffffffffffffffffffffff163373ffffffffffffffffffffffffffffffffffffffff1614610b6f57600080fd5b600254905090565b6000816000809054906101000a900473ffffffffffffffffffffffffffffffffffffffff1673ffffffffffffffffffffffffffffffffffffffff166370a08231856040518263ffffffff1660e01b8152600401808273ffffffffffffffffffffffffffffffffffffffff1673ffffffffffffffffffffffffffffffffffffffff16815260200191505060206040518083038186803b158015610c1857600080fd5b505afa158015610c2c573d6000803e3d6000fd5b505050506040513d6020811015610c4257600080fd5b81019080805190602001909291905050501015610c5e57600080fd5b610d17826004866040518082805190602001908083835b60208310610c985780518252602082019150602081019050602083039250610c75565b6001836020036101000a038019825116818451168082178552505050505050905001915050908152602001604051809103902060008673ffffffffffffffffffffffffffffffffffffffff1673ffffffffffffffffffffffffffffffffffffffff16815260200190815260200160002054610ef190919063ffffffff16565b6004856040518082805190602001908083835b60208310610d4d5780518252602082019150602081019050602083039250610d2a565b6001836020036101000a038019825116818451168082178552505050505050905001915050908152602001604051809103902060008573ffffffffffffffffffffffffffffffffffffffff1673ffffffffffffffffffffffffffffffffffffffff16815260200190815260200160002081905550600190509392505050565b600160009054906101000a900473ffffffffffffffffffffffffffffffffffffffff1673ffffffffffffffffffffffffffffffffffffffff163373ffffffffffffffffffffffffffffffffffffffff1614610e2657600080fd5b60006004826040518082805190602001908083835b60208310610e5e5780518252602082019150602081019050602083039250610e3b565b6001836020036101000a038019825116818451168082178552505050505050905001915050908152602001604051809103902060003373ffffffffffffffffffffffffffffffffffffffff1673ffffffffffffffffffffffffffffffffffffffff16815260200190815260200160002081905550610ee86001600254610ef190919063ffffffff16565b60028190555050565b600080828401905083811015610f0657600080fd5b809150509291505056fea2646970667358221220cd41d82ed3a2f5fa33ec59d2d758c2675bc6b577b606ea6bf2c140825c617e6764736f6c63430006000033",
  "source": "pragma solidity 0.6.0;\n\nlibrary SafeMath {\n  /**\n  * @dev Multiplies two unsigned integers, reverts on overflow.\n  */\n  function mul(uint256 a, uint256 b) internal pure returns (uint256) {\n    // Gas optimization: this is cheaper than requiring 'a' not being zero, but the\n    // benefit is lost if 'b' is also tested.\n    // See: https://github.com/OpenZeppelin/openzeppelin-solidity/pull/522\n    if (a == 0) {\n        return 0;\n    }\n\n    uint256 c = a * b;\n    require(c / a == b);\n\n    return c;\n  }\n\n  /**\n  * @dev Integer division of two unsigned integers truncating the quotient, reverts on division by zero.\n  */\n  function div(uint256 a, uint256 b) internal pure returns (uint256) {\n    // Solidity only automatically asserts when dividing by 0\n    require(b > 0);\n    uint256 c = a / b;\n    // assert(a == b * c + a % b); // There is no case in which this doesn't hold\n\n    return c;\n  }\n\n  /**\n  * @dev Subtracts two unsigned integers, reverts on overflow (i.e. if subtrahend is greater than minuend).\n  */\n  function sub(uint256 a, uint256 b) internal pure returns (uint256) {\n    require(b <= a);\n    uint256 c = a - b;\n\n    return c;\n  }\n\n  /**\n  * @dev Adds two unsigned integers, reverts on overflow.\n  */\n  function add(uint256 a, uint256 b) internal pure returns (uint256) {\n    uint256 c = a + b;\n    require(c >= a);\n\n    return c;\n  }\n\n  /**\n  * @dev Divides two unsigned integers and returns the remainder (unsigned integer modulo),\n  * reverts when dividing by zero.\n  */\n  function mod(uint256 a, uint256 b) internal pure returns (uint256) {\n    require(b != 0);\n    return a % b;\n  }\n}\n\ninterface ERC20 {\n  function balanceOf(address who) external view returns (uint256);\n  function transfer(address to, uint value) external  returns (bool success);\n  function transferFrom(address from, address to, uint value) external returns (bool success);\n}\n\n// https://en.wikipedia.org/wiki/Cura_Annonae\ncontract CuraAnnonae {\n  using SafeMath for uint256;\n\n  // variables.\n  ERC20 public YFMSToken;\n  address public owner;\n  uint256 public numberOfVaults;\n  uint256 public rewardsBalance;\n\n  // mappings.\n  mapping(string => mapping(address => uint256)) internal vaults_data; // { VaultName: { UserAddress: value }}\n\n  constructor(address _wallet) public {\n    owner = msg.sender;\n    YFMSToken = ERC20(_wallet);\n  }\n\n  // view the number of tokens left to distribute.\n  function getRewardsBalance() public view returns (uint256) {\n    return YFMSToken.balanceOf(address(this));\n  }\n\n  // calculate the daily reward.\n  function getDailyReward() public view returns (uint256) {\n    require(msg.sender == owner);\n    return YFMSToken.balanceOf(address(this)) / 10000 * 40;\n  }\n\n  function getNumberOfVaults() public view returns (uint256) {\n    require(msg.sender == owner);\n    return numberOfVaults;\n  }\n\n  // get user balance in specific vault.\n  function getUserBalanceInVault(string memory _vault, address _user) public view returns (uint256) {\n    require(vaults_data[_vault][_user] >= 0);\n    return vaults_data[_vault][_user];\n  }\n\n  function getBurnFee(uint256 _burnFee) public view returns (uint256) {\n    return _burnFee;\n  }\n\n  // enables users to stake stable coins/ YFMS from their respective vaults.\n  function stake(string memory _vault, address _sender, uint256 _amount) public returns (bool) {\n    // ensure it is a valid amount.\n    require(YFMSToken.balanceOf(_sender) >= _amount);\n    // update mapping.\n    vaults_data[_vault][_sender] = vaults_data[_vault][_sender].add(_amount);\n    return true;\n  }\n\n  // enables users to unstake staked coins at a 2.5% cost (tokens will be burned).\n  function unstake(string memory _vault, address _sender) public {\n    uint256 stakedAmount = vaults_data[_vault][_sender];\n    require(stakedAmount >= 10000); // won't break divison below.\n    // get 2.5% burn fee.\n    uint256 burnFee = stakedAmount / 10000 * 25;\n    // remove staked balance.\n    vaults_data[_vault][_sender] = 0;\n  }\n\n  // add a vault.\n  function addVault(string memory name) public {\n    require(msg.sender == owner);\n    // initialize new vault.\n    vaults_data[name][msg.sender] = 0; \n    // increment number of vaults.\n    numberOfVaults = numberOfVaults.add(1);\n  }\n}\n",
  "sourcePath": "/home/spyder/Programming/Projects/YFMS/yfms-core/src/contracts/CuraAnnonae.sol",
  "compiler": {
    "name": "solc",
    "version": "0.6.0+commit.26b70077.Emscripten.clang"
  },
  "schemaVersion": "3.2.3",
  "updatedAt": "2020-09-22T16:28:15.064Z",
  "networkType": "ethereum",
  "devdoc": {
    "methods": {}
  },
  "userdoc": {
    "methods": {}
  }
}