{
  "contractName": "YFMSVault",
  "abi": [
    {
      "inputs": [
        {
          "internalType": "address",
          "name": "_cura",
          "type": "address"
        },
        {
          "internalType": "address",
          "name": "_token",
          "type": "address"
        }
      ],
      "stateMutability": "nonpayable",
      "type": "constructor"
    },
    {
      "inputs": [],
      "name": "CuraAnnonae",
      "outputs": [
        {
          "internalType": "contract CuraAnnonaes",
          "name": "",
          "type": "address"
        }
      ],
      "stateMutability": "view",
      "type": "function",
      "constant": true
    },
    {
      "inputs": [],
      "name": "YFMSToken",
      "outputs": [
        {
          "internalType": "contract ERC20",
          "name": "",
          "type": "address"
        }
      ],
      "stateMutability": "view",
      "type": "function",
      "constant": true
    },
    {
      "inputs": [],
      "name": "burnTotal",
      "outputs": [
        {
          "internalType": "uint256",
          "name": "",
          "type": "uint256"
        }
      ],
      "stateMutability": "view",
      "type": "function",
      "constant": true
    },
    {
      "inputs": [],
      "name": "owner",
      "outputs": [
        {
          "internalType": "address",
          "name": "",
          "type": "address"
        }
      ],
      "stateMutability": "view",
      "type": "function",
      "constant": true
    },
    {
      "inputs": [
        {
          "internalType": "uint256",
          "name": "",
          "type": "uint256"
        }
      ],
      "name": "stakers",
      "outputs": [
        {
          "internalType": "address",
          "name": "",
          "type": "address"
        }
      ],
      "stateMutability": "view",
      "type": "function",
      "constant": true
    },
    {
      "inputs": [
        {
          "internalType": "address",
          "name": "_from",
          "type": "address"
        }
      ],
      "name": "getUserBalance",
      "outputs": [
        {
          "internalType": "uint256",
          "name": "",
          "type": "uint256"
        }
      ],
      "stateMutability": "view",
      "type": "function",
      "constant": true
    },
    {
      "inputs": [],
      "name": "getStakers",
      "outputs": [
        {
          "internalType": "address[]",
          "name": "",
          "type": "address[]"
        }
      ],
      "stateMutability": "view",
      "type": "function",
      "constant": true
    },
    {
      "inputs": [
        {
          "internalType": "address",
          "name": "_user",
          "type": "address"
        }
      ],
      "name": "getUnstakingFee",
      "outputs": [
        {
          "internalType": "uint256",
          "name": "",
          "type": "uint256"
        }
      ],
      "stateMutability": "view",
      "type": "function",
      "constant": true
    },
    {
      "inputs": [
        {
          "internalType": "uint256",
          "name": "_amount",
          "type": "uint256"
        },
        {
          "internalType": "address",
          "name": "_from",
          "type": "address"
        }
      ],
      "name": "stakeYFMS",
      "outputs": [],
      "stateMutability": "nonpayable",
      "type": "function"
    },
    {
      "inputs": [
        {
          "internalType": "address",
          "name": "_to",
          "type": "address"
        }
      ],
      "name": "unstakeYFMS",
      "outputs": [],
      "stateMutability": "nonpayable",
      "type": "function"
    },
    {
      "inputs": [],
      "name": "distributeVaultRewards",
      "outputs": [],
      "stateMutability": "nonpayable",
      "type": "function"
    }
  ],
  "bytecode": "0x6080604052600060025534801561001557600080fd5b506040516113783803806113788339818101604052604081101561003857600080fd5b810190808051906020019092919080519060200190929190505050336000806101000a81548173ffffffffffffffffffffffffffffffffffffffff021916908373ffffffffffffffffffffffffffffffffffffffff16021790555081600360006101000a81548173ffffffffffffffffffffffffffffffffffffffff021916908373ffffffffffffffffffffffffffffffffffffffff16021790555080600460006101000a81548173ffffffffffffffffffffffffffffffffffffffff021916908373ffffffffffffffffffffffffffffffffffffffff1602179055505050611252806101266000396000f3fe608060405234801561001057600080fd5b50600436106100a95760003560e01c8063477348921161007157806347734892146101d75780635a81d05c1461022f5780638da5cb5b14610279578063ddc59a43146102c3578063eda1984814610311578063fd5e6dd114610355576100a9565b8063021e63c1146100ae5780630de2178c146100f857806310dc97c0146101505780631f60d8c81461016e57806343352d6114610178575b600080fd5b6100b66103c3565b604051808273ffffffffffffffffffffffffffffffffffffffff1673ffffffffffffffffffffffffffffffffffffffff16815260200191505060405180910390f35b61013a6004803603602081101561010e57600080fd5b81019080803573ffffffffffffffffffffffffffffffffffffffff1690602001909291905050506103e9565b6040518082815260200191505060405180910390f35b61015861041d565b6040518082815260200191505060405180910390f35b610176610423565b005b6101806108f8565b6040518080602001828103825283818151815260200191508051906020019060200280838360005b838110156101c35780820151818401526020810190506101a8565b505050509050019250505060405180910390f35b610219600480360360208110156101ed57600080fd5b81019080803573ffffffffffffffffffffffffffffffffffffffff169060200190929190505050610986565b6040518082815260200191505060405180910390f35b610237610aa2565b604051808273ffffffffffffffffffffffffffffffffffffffff1673ffffffffffffffffffffffffffffffffffffffff16815260200191505060405180910390f35b610281610ac8565b604051808273ffffffffffffffffffffffffffffffffffffffff1673ffffffffffffffffffffffffffffffffffffffff16815260200191505060405180910390f35b61030f600480360360408110156102d957600080fd5b8101908080359060200190929190803573ffffffffffffffffffffffffffffffffffffffff169060200190929190505050610aed565b005b6103536004803603602081101561032757600080fd5b81019080803573ffffffffffffffffffffffffffffffffffffffff169060200190929190505050610daa565b005b6103816004803603602081101561036b57600080fd5b81019080803590602001909291905050506110f8565b604051808273ffffffffffffffffffffffffffffffffffffffff1673ffffffffffffffffffffffffffffffffffffffff16815260200191505060405180910390f35b600460009054906101000a900473ffffffffffffffffffffffffffffffffffffffff1681565b6000806103f583610986565b905061271081101561040657600080fd5b60fa612710828161041357fe5b0402915050919050565b60025481565b6000809054906101000a900473ffffffffffffffffffffffffffffffffffffffff1673ffffffffffffffffffffffffffffffffffffffff163373ffffffffffffffffffffffffffffffffffffffff161461047c57600080fd5b6000600360009054906101000a900473ffffffffffffffffffffffffffffffffffffffff1673ffffffffffffffffffffffffffffffffffffffff1663adda10aa6040518163ffffffff1660e01b815260040160206040518083038186803b1580156104e657600080fd5b505afa1580156104fa573d6000803e3d6000fd5b505050506040513d602081101561051057600080fd5b810190808051906020019092919050505090506000600360009054906101000a900473ffffffffffffffffffffffffffffffffffffffff1673ffffffffffffffffffffffffffffffffffffffff1663d3e0bc566040518163ffffffff1660e01b815260040160206040518083038186803b15801561058d57600080fd5b505afa1580156105a1573d6000803e3d6000fd5b505050506040513d60208110156105b757600080fd5b8101908080519060200190929190505050905060006105df828461113490919063ffffffff16565b905060006106cf82600460009054906101000a900473ffffffffffffffffffffffffffffffffffffffff1673ffffffffffffffffffffffffffffffffffffffff166370a08231306040518263ffffffff1660e01b8152600401808273ffffffffffffffffffffffffffffffffffffffff1673ffffffffffffffffffffffffffffffffffffffff16815260200191505060206040518083038186803b15801561068657600080fd5b505afa15801561069a573d6000803e3d6000fd5b505050506040513d60208110156106b057600080fd5b810190808051906020019092919050505061115a90919063ffffffff16565b905060008060008090505b6001805490508110156108ef57610727600182815481106106f757fe5b9060005260206000200160009054906101000a900473ffffffffffffffffffffffffffffffffffffffff16610986565b925060008311156108e2576107596103e8868161074057fe5b0461074b858761117a565b6111c390919063ffffffff16565b9150600360009054906101000a900473ffffffffffffffffffffffffffffffffffffffff1673ffffffffffffffffffffffffffffffffffffffff1663bb2f666c6000809054906101000a900473ffffffffffffffffffffffffffffffffffffffff16600184815481106107c857fe5b9060005260206000200160009054906101000a900473ffffffffffffffffffffffffffffffffffffffff16856040518463ffffffff1660e01b815260040180806020018573ffffffffffffffffffffffffffffffffffffffff1673ffffffffffffffffffffffffffffffffffffffff1681526020018473ffffffffffffffffffffffffffffffffffffffff1673ffffffffffffffffffffffffffffffffffffffff168152602001838152602001828103825260048152602001807f59464d5300000000000000000000000000000000000000000000000000000000815250602001945050505050600060405180830381600087803b1580156108c957600080fd5b505af11580156108dd573d6000803e3d6000fd5b505050505b80806001019150506106da565b50505050505050565b6060600180548060200260200160405190810160405280929190818152602001828054801561097c57602002820191906000526020600020905b8160009054906101000a900473ffffffffffffffffffffffffffffffffffffffff1673ffffffffffffffffffffffffffffffffffffffff1681526020019060010190808311610932575b5050505050905090565b6000600360009054906101000a900473ffffffffffffffffffffffffffffffffffffffff1673ffffffffffffffffffffffffffffffffffffffff1663b79959b1836040518263ffffffff1660e01b815260040180806020018373ffffffffffffffffffffffffffffffffffffffff1673ffffffffffffffffffffffffffffffffffffffff168152602001828103825260048152602001807f59464d53000000000000000000000000000000000000000000000000000000008152506020019250505060206040518083038186803b158015610a6057600080fd5b505afa158015610a74573d6000803e3d6000fd5b505050506040513d6020811015610a8a57600080fd5b81019080805190602001909291905050509050919050565b600360009054906101000a900473ffffffffffffffffffffffffffffffffffffffff1681565b6000809054906101000a900473ffffffffffffffffffffffffffffffffffffffff1681565b8073ffffffffffffffffffffffffffffffffffffffff163373ffffffffffffffffffffffffffffffffffffffff1614610b2557600080fd5b600460009054906101000a900473ffffffffffffffffffffffffffffffffffffffff1673ffffffffffffffffffffffffffffffffffffffff166370a08231826040518263ffffffff1660e01b8152600401808273ffffffffffffffffffffffffffffffffffffffff1673ffffffffffffffffffffffffffffffffffffffff16815260200191505060206040518083038186803b158015610bc457600080fd5b505afa158015610bd8573d6000803e3d6000fd5b505050506040513d6020811015610bee57600080fd5b8101908080519060200190929190505050821115610c0b57600080fd5b6000610c1682610986565b1415610c80576001819080600181540180825580915050600190039060005260206000200160009091909190916101000a81548173ffffffffffffffffffffffffffffffffffffffff021916908373ffffffffffffffffffffffffffffffffffffffff1602179055505b600360009054906101000a900473ffffffffffffffffffffffffffffffffffffffff1673ffffffffffffffffffffffffffffffffffffffff1663ee97a61682846040518363ffffffff1660e01b815260040180806020018473ffffffffffffffffffffffffffffffffffffffff1673ffffffffffffffffffffffffffffffffffffffff168152602001838152602001828103825260048152602001807f59464d53000000000000000000000000000000000000000000000000000000008152506020019350505050602060405180830381600087803b158015610d6257600080fd5b505af1158015610d76573d6000803e3d6000fd5b505050506040513d6020811015610d8c57600080fd5b8101908080519060200190929190505050610da657600080fd5b5050565b6000610db5826103e9565b90506000610dd482610dc685610986565b61115a90919063ffffffff16565b905060008111610de357600080fd5b8273ffffffffffffffffffffffffffffffffffffffff163373ffffffffffffffffffffffffffffffffffffffff1614610e1b57600080fd5b600460009054906101000a900473ffffffffffffffffffffffffffffffffffffffff1673ffffffffffffffffffffffffffffffffffffffff1663a9059cbb84836040518363ffffffff1660e01b8152600401808373ffffffffffffffffffffffffffffffffffffffff1673ffffffffffffffffffffffffffffffffffffffff16815260200182815260200192505050602060405180830381600087803b158015610ec457600080fd5b505af1158015610ed8573d6000803e3d6000fd5b505050506040513d6020811015610eee57600080fd5b810190808051906020019092919050505050600460009054906101000a900473ffffffffffffffffffffffffffffffffffffffff1673ffffffffffffffffffffffffffffffffffffffff1663a9059cbb6000846040518363ffffffff1660e01b8152600401808373ffffffffffffffffffffffffffffffffffffffff1673ffffffffffffffffffffffffffffffffffffffff16815260200182815260200192505050602060405180830381600087803b158015610faa57600080fd5b505af1158015610fbe573d6000803e3d6000fd5b505050506040513d6020811015610fd457600080fd5b810190808051906020019092919050505050610ffb826002546111fd90919063ffffffff16565b600281905550600360009054906101000a900473ffffffffffffffffffffffffffffffffffffffff1673ffffffffffffffffffffffffffffffffffffffff1663218f2988846040518263ffffffff1660e01b815260040180806020018373ffffffffffffffffffffffffffffffffffffffff1673ffffffffffffffffffffffffffffffffffffffff168152602001828103825260048152602001807f59464d530000000000000000000000000000000000000000000000000000000081525060200192505050600060405180830381600087803b1580156110db57600080fd5b505af11580156110ef573d6000803e3d6000fd5b50505050505050565b6001818154811061110557fe5b906000526020600020016000915054906101000a900473ffffffffffffffffffffffffffffffffffffffff1681565b600080821161114257600080fd5b600082848161114d57fe5b0490508091505092915050565b60008282111561116957600080fd5b600082840390508091505092915050565b6000806127108402905060006111b6600a6111a8600587868161119957fe5b046111fd90919063ffffffff16565b61113490919063ffffffff16565b9050809250505092915050565b6000808314156111d657600090506111f7565b60008284029050828482816111e757fe5b04146111f257600080fd5b809150505b92915050565b60008082840190508381101561121257600080fd5b809150509291505056fea2646970667358221220a3ed3b20166840ead5fc0de13dba033ea466b06b25f197768a8d88cf418337c864736f6c63430006080033",
  "immutableReferences": {},
  "source": "pragma solidity 0.6.8;\n\nlibrary SafeMath {\n  /**\n  * @dev Multiplies two unsigned integers, reverts on overflow.\n  */\n  function mul(uint256 a, uint256 b) internal pure returns (uint256) {\n    // Gas optimization: this is cheaper than requiring 'a' not being zero, but the\n    // benefit is lost if 'b' is also tested.\n    // See: https://github.com/OpenZeppelin/openzeppelin-solidity/pull/522\n    if (a == 0) {\n        return 0;\n    }\n\n    uint256 c = a * b;\n    require(c / a == b);\n\n    return c;\n  }\n\n  /**\n  * @dev Integer division of two unsigned integers truncating the quotient, reverts on division by zero.\n  */\n  function div(uint256 a, uint256 b) internal pure returns (uint256) {\n    // Solidity only automatically asserts when dividing by 0\n    require(b > 0);\n    uint256 c = a / b;\n    // assert(a == b * c + a % b); // There is no case in which this doesn't hold\n\n    return c;\n  }\n\n  /**\n  * @dev Subtracts two unsigned integers, reverts on overflow (i.e. if subtrahend is greater than minuend).\n  */\n  function sub(uint256 a, uint256 b) internal pure returns (uint256) {\n    require(b <= a);\n    uint256 c = a - b;\n\n    return c;\n  }\n\n  /**\n  * @dev Adds two unsigned integers, reverts on overflow.\n  */\n  function add(uint256 a, uint256 b) internal pure returns (uint256) {\n    uint256 c = a + b;\n    require(c >= a);\n\n    return c;\n  }\n\n  /**\n  * @dev Divides two unsigned integers and returns the remainder (unsigned integer modulo),\n  * reverts when dividing by zero.\n  */\n  function mod(uint256 a, uint256 b) internal pure returns (uint256) {\n    require(b != 0);\n    return a % b;\n  }\n}\n\ninterface ERC20 {\n  function balanceOf(address who) external view returns (uint256);\n  function transfer(address to, uint value) external returns (bool success);\n}\n\ninterface CuraAnnonaes {\n  function getDailyReward() external view returns (uint256);\n  function getNumberOfVaults() external view returns (uint256);\n  function getUserBalanceInVault(string calldata vault, address user) external view returns (uint256);\n  function stake(string calldata vault, address receiver, uint256 amount) external returns (bool);\n  function unstake(string calldata vault, address receiver) external;\n  function updateVaultData(string calldata vault, address who, address user, uint value) external;\n}\n\n// https://en.wikipedia.org/wiki/Cura_Annonae\ncontract YFMSVault {\n  using SafeMath for uint256;\n\n  // variables.\n  address public owner;\n  address[] public stakers; // tracks all addresses in vault.\n  uint256 public burnTotal = 0;\n  CuraAnnonaes public CuraAnnonae;\n  ERC20 public YFMSToken;\n  \n  constructor(address _cura, address _token) public {\n    owner = msg.sender;\n    CuraAnnonae = CuraAnnonaes(_cura);\n    YFMSToken = ERC20(_token);\n  }\n\n  // balance of a user in the vault.\n  function getUserBalance(address _from) public view returns (uint256) {\n    return CuraAnnonae.getUserBalanceInVault(\"YFMS\", _from);\n  }\n\n  // returns all users currently staking in this vault.\n  function getStakers() public view returns (address[] memory) {\n    return stakers; \n  }\n\n  function getUnstakingFee(address _user) public view returns (uint256) {\n    uint256 _balance = getUserBalance(_user);\n    require(_balance >= 10000);\n    return _balance / 10000 * 250;\n  }\n\n  function stakeYFMS(uint256 _amount, address _from) public {\n    // add user to stakers array if not currently present.\n    require(msg.sender == _from);\n    require(_amount <= YFMSToken.balanceOf(_from));\n    if (getUserBalance(_from) == 0)\n      stakers.push(_from);\n    require(CuraAnnonae.stake(\"YFMS\", _from, _amount));\n  }\n\n  function unstakeYFMS(address _to) public {\n    uint256 _unstakingFee = getUnstakingFee(_to);\n    uint256 _amount = getUserBalance(_to).sub(_unstakingFee);\n    // ensure data integrity.\n    require(_amount > 0);\n    require(msg.sender == _to);\n    // first transfer funds back to the user then burn the unstaking fee.\n    YFMSToken.transfer(_to, _amount);\n    YFMSToken.transfer(address(0), _unstakingFee);\n    // add to burn total.\n    burnTotal = burnTotal.add(_unstakingFee); \n    CuraAnnonae.unstake(\"YFMS\", _to);\n    // after successful unstake, pop the user out of the stakers array.\n    // find the index of the user address in the stakers array.\n    /*\n    uint256 indexOfUser;\n    for (uint i = 0; i < stakers.length; i++) {\n      if (stakers[i] == _to) {\n        indexOfUser = i;\n        break;\n      }\n    }\n    delete stakers[indexOfUser];\n    */\n    // perhaps cleaning users in bulk would be more cost effective.\n    // users who stake back in would have had their addresses deleted for no good reason.\n  }\n\n  function ratioMath(uint256 _numerator, uint256 _denominator) internal pure returns (uint256) {\n    uint256 numerator = _numerator * 10 ** 4; // precision is 3 decimal places %0.000\n    uint256 quotient = (numerator / _denominator).add(5).div(10);\n    return quotient;\n  }\n\n  // daily call to distribute vault rewards to users who have staked.\n  function distributeVaultRewards () public {\n    require(msg.sender == owner);\n    uint256 _reward = CuraAnnonae.getDailyReward();\n    uint256 _vaults = CuraAnnonae.getNumberOfVaults();\n    uint256 _vaultReward = _reward.div(_vaults);\n    // remove daily reward from address(this) total.\n    uint256 _pool = YFMSToken.balanceOf(address(this)).sub(_vaultReward);\n    uint256 _userBalance;\n    uint256 _earned;\n    // iterate through stakers array and distribute rewards based on % staked.\n    for (uint i = 0; i < stakers.length; i++) {\n      _userBalance = getUserBalance(stakers[i]);\n      if (_userBalance > 0) {\n        _earned = ratioMath(_userBalance, _pool).mul(_vaultReward / 1000);\n        // update the vault data.\n        CuraAnnonae.updateVaultData(\"YFMS\", owner, stakers[i], _earned);\n      }\n    }\n  }\n}\n",
  "sourcePath": "/home/spyder/Programming/Projects/YFMS/yfms-core/src/contracts/YFMSVault.sol",
  "compiler": {
    "name": "solc",
    "version": "0.6.8+commit.0bbfe453.Emscripten.clang"
  },
  "schemaVersion": "3.2.3",
  "updatedAt": "2020-09-25T00:32:33.782Z",
  "networkType": "ethereum",
  "devdoc": {
    "methods": {}
  },
  "userdoc": {
    "methods": {}
  }
}