{
  "contractName": "YFMSVault",
  "abi": [
    {
      "inputs": [
        {
          "internalType": "address",
          "name": "_cura",
          "type": "address"
        },
        {
          "internalType": "address",
          "name": "_token",
          "type": "address"
        }
      ],
      "stateMutability": "nonpayable",
      "type": "constructor"
    },
    {
      "inputs": [],
      "name": "CuraAnnonae",
      "outputs": [
        {
          "internalType": "contract CuraAnnonaes",
          "name": "",
          "type": "address"
        }
      ],
      "stateMutability": "view",
      "type": "function",
      "constant": true
    },
    {
      "inputs": [],
      "name": "YFMSToken",
      "outputs": [
        {
          "internalType": "contract ERC20",
          "name": "",
          "type": "address"
        }
      ],
      "stateMutability": "view",
      "type": "function",
      "constant": true
    },
    {
      "inputs": [],
      "name": "burnTotal",
      "outputs": [
        {
          "internalType": "uint256",
          "name": "",
          "type": "uint256"
        }
      ],
      "stateMutability": "view",
      "type": "function",
      "constant": true
    },
    {
      "inputs": [],
      "name": "owner",
      "outputs": [
        {
          "internalType": "address",
          "name": "",
          "type": "address"
        }
      ],
      "stateMutability": "view",
      "type": "function",
      "constant": true
    },
    {
      "inputs": [
        {
          "internalType": "uint256",
          "name": "",
          "type": "uint256"
        }
      ],
      "name": "stakers",
      "outputs": [
        {
          "internalType": "address",
          "name": "",
          "type": "address"
        }
      ],
      "stateMutability": "view",
      "type": "function",
      "constant": true
    },
    {
      "inputs": [
        {
          "internalType": "address",
          "name": "_from",
          "type": "address"
        }
      ],
      "name": "getUserBalance",
      "outputs": [
        {
          "internalType": "uint256",
          "name": "",
          "type": "uint256"
        }
      ],
      "stateMutability": "view",
      "type": "function",
      "constant": true
    },
    {
      "inputs": [],
      "name": "getStakers",
      "outputs": [
        {
          "internalType": "address[]",
          "name": "",
          "type": "address[]"
        }
      ],
      "stateMutability": "view",
      "type": "function",
      "constant": true
    },
    {
      "inputs": [
        {
          "internalType": "address",
          "name": "_user",
          "type": "address"
        }
      ],
      "name": "getUnstakingFee",
      "outputs": [
        {
          "internalType": "uint256",
          "name": "",
          "type": "uint256"
        }
      ],
      "stateMutability": "view",
      "type": "function",
      "constant": true
    },
    {
      "inputs": [
        {
          "internalType": "uint256",
          "name": "_amount",
          "type": "uint256"
        },
        {
          "internalType": "address",
          "name": "_from",
          "type": "address"
        }
      ],
      "name": "stakeYFMS",
      "outputs": [],
      "stateMutability": "nonpayable",
      "type": "function"
    },
    {
      "inputs": [
        {
          "internalType": "address",
          "name": "_to",
          "type": "address"
        }
      ],
      "name": "unstakeYFMS",
      "outputs": [],
      "stateMutability": "nonpayable",
      "type": "function"
    },
    {
      "inputs": [],
      "name": "distributeVaultRewards",
      "outputs": [],
      "stateMutability": "nonpayable",
      "type": "function"
    }
  ],
  "bytecode": "0x6080604052600060025534801561001557600080fd5b506040516115153803806115158339818101604052604081101561003857600080fd5b810190808051906020019092919080519060200190929190505050336000806101000a81548173ffffffffffffffffffffffffffffffffffffffff021916908373ffffffffffffffffffffffffffffffffffffffff16021790555081600360006101000a81548173ffffffffffffffffffffffffffffffffffffffff021916908373ffffffffffffffffffffffffffffffffffffffff16021790555080600460006101000a81548173ffffffffffffffffffffffffffffffffffffffff021916908373ffffffffffffffffffffffffffffffffffffffff16021790555050506113ef806101266000396000f3fe608060405234801561001057600080fd5b50600436106100a95760003560e01c8063477348921161007157806347734892146101d75780635a81d05c1461022f5780638da5cb5b14610279578063ddc59a43146102c3578063eda1984814610311578063fd5e6dd114610355576100a9565b8063021e63c1146100ae5780630de2178c146100f857806310dc97c0146101505780631f60d8c81461016e57806343352d6114610178575b600080fd5b6100b66103c3565b604051808273ffffffffffffffffffffffffffffffffffffffff1673ffffffffffffffffffffffffffffffffffffffff16815260200191505060405180910390f35b61013a6004803603602081101561010e57600080fd5b81019080803573ffffffffffffffffffffffffffffffffffffffff1690602001909291905050506103e9565b6040518082815260200191505060405180910390f35b61015861040e565b6040518082815260200191505060405180910390f35b610176610414565b005b6101806108c8565b6040518080602001828103825283818151815260200191508051906020019060200280838360005b838110156101c35780820151818401526020810190506101a8565b505050509050019250505060405180910390f35b610219600480360360208110156101ed57600080fd5b81019080803573ffffffffffffffffffffffffffffffffffffffff169060200190929190505050610956565b6040518082815260200191505060405180910390f35b610237610a72565b604051808273ffffffffffffffffffffffffffffffffffffffff1673ffffffffffffffffffffffffffffffffffffffff16815260200191505060405180910390f35b610281610a98565b604051808273ffffffffffffffffffffffffffffffffffffffff1673ffffffffffffffffffffffffffffffffffffffff16815260200191505060405180910390f35b61030f600480360360408110156102d957600080fd5b8101908080359060200190929190803573ffffffffffffffffffffffffffffffffffffffff169060200190929190505050610abd565b005b6103536004803603602081101561032757600080fd5b81019080803573ffffffffffffffffffffffffffffffffffffffff169060200190929190505050610dae565b005b6103816004803603602081101561036b57600080fd5b8101908080359060200190929190505050611139565b604051808273ffffffffffffffffffffffffffffffffffffffff1673ffffffffffffffffffffffffffffffffffffffff16815260200191505060405180910390f35b600460009054906101000a900473ffffffffffffffffffffffffffffffffffffffff1681565b6000806103f583610956565b905060fa612710828161040457fe5b0402915050919050565b60025481565b6000809054906101000a900473ffffffffffffffffffffffffffffffffffffffff1673ffffffffffffffffffffffffffffffffffffffff163373ffffffffffffffffffffffffffffffffffffffff161461046d57600080fd5b6000600360009054906101000a900473ffffffffffffffffffffffffffffffffffffffff1673ffffffffffffffffffffffffffffffffffffffff1663adda10aa6040518163ffffffff1660e01b815260040160206040518083038186803b1580156104d757600080fd5b505afa1580156104eb573d6000803e3d6000fd5b505050506040513d602081101561050157600080fd5b810190808051906020019092919050505090506000600360009054906101000a900473ffffffffffffffffffffffffffffffffffffffff1673ffffffffffffffffffffffffffffffffffffffff1663d3e0bc566040518163ffffffff1660e01b815260040160206040518083038186803b15801561057e57600080fd5b505afa158015610592573d6000803e3d6000fd5b505050506040513d60208110156105a857600080fd5b8101908080519060200190929190505050905060006105d0828461117590919063ffffffff16565b905060006106c082600460009054906101000a900473ffffffffffffffffffffffffffffffffffffffff1673ffffffffffffffffffffffffffffffffffffffff166370a08231306040518263ffffffff1660e01b8152600401808273ffffffffffffffffffffffffffffffffffffffff1673ffffffffffffffffffffffffffffffffffffffff16815260200191505060206040518083038186803b15801561067757600080fd5b505afa15801561068b573d6000803e3d6000fd5b505050506040513d60208110156106a157600080fd5b810190808051906020019092919050505061119b90919063ffffffff16565b905060008060008090505b6001805490508110156108bf57610718600182815481106106e857fe5b9060005260206000200160009054906101000a900473ffffffffffffffffffffffffffffffffffffffff16610956565b925060008311156108b25761074a6103e8868161073157fe5b0461073c85876111bb565b61120490919063ffffffff16565b9150600360009054906101000a900473ffffffffffffffffffffffffffffffffffffffff1673ffffffffffffffffffffffffffffffffffffffff1663bb2f666c306001848154811061079857fe5b9060005260206000200160009054906101000a900473ffffffffffffffffffffffffffffffffffffffff16856040518463ffffffff1660e01b815260040180806020018573ffffffffffffffffffffffffffffffffffffffff1673ffffffffffffffffffffffffffffffffffffffff1681526020018473ffffffffffffffffffffffffffffffffffffffff1673ffffffffffffffffffffffffffffffffffffffff168152602001838152602001828103825260048152602001807f59464d5300000000000000000000000000000000000000000000000000000000815250602001945050505050600060405180830381600087803b15801561089957600080fd5b505af11580156108ad573d6000803e3d6000fd5b505050505b80806001019150506106cb565b50505050505050565b6060600180548060200260200160405190810160405280929190818152602001828054801561094c57602002820191906000526020600020905b8160009054906101000a900473ffffffffffffffffffffffffffffffffffffffff1673ffffffffffffffffffffffffffffffffffffffff1681526020019060010190808311610902575b5050505050905090565b6000600360009054906101000a900473ffffffffffffffffffffffffffffffffffffffff1673ffffffffffffffffffffffffffffffffffffffff1663b79959b1836040518263ffffffff1660e01b815260040180806020018373ffffffffffffffffffffffffffffffffffffffff1673ffffffffffffffffffffffffffffffffffffffff168152602001828103825260048152602001807f59464d53000000000000000000000000000000000000000000000000000000008152506020019250505060206040518083038186803b158015610a3057600080fd5b505afa158015610a44573d6000803e3d6000fd5b505050506040513d6020811015610a5a57600080fd5b81019080805190602001909291905050509050919050565b600360009054906101000a900473ffffffffffffffffffffffffffffffffffffffff1681565b6000809054906101000a900473ffffffffffffffffffffffffffffffffffffffff1681565b8073ffffffffffffffffffffffffffffffffffffffff163373ffffffffffffffffffffffffffffffffffffffff1614610af557600080fd5b600460009054906101000a900473ffffffffffffffffffffffffffffffffffffffff1673ffffffffffffffffffffffffffffffffffffffff166370a08231826040518263ffffffff1660e01b8152600401808273ffffffffffffffffffffffffffffffffffffffff1673ffffffffffffffffffffffffffffffffffffffff16815260200191505060206040518083038186803b158015610b9457600080fd5b505afa158015610ba8573d6000803e3d6000fd5b505050506040513d6020811015610bbe57600080fd5b8101908080519060200190929190505050821115610bdb57600080fd5b6000610be682610956565b1415610c50576001819080600181540180825580915050600190039060005260206000200160009091909190916101000a81548173ffffffffffffffffffffffffffffffffffffffff021916908373ffffffffffffffffffffffffffffffffffffffff1602179055505b600360009054906101000a900473ffffffffffffffffffffffffffffffffffffffff1673ffffffffffffffffffffffffffffffffffffffff1663b54faf478284306040518463ffffffff1660e01b815260040180806020018573ffffffffffffffffffffffffffffffffffffffff1673ffffffffffffffffffffffffffffffffffffffff1681526020018481526020018373ffffffffffffffffffffffffffffffffffffffff1673ffffffffffffffffffffffffffffffffffffffff168152602001828103825260048152602001807f59464d5300000000000000000000000000000000000000000000000000000000815250602001945050505050602060405180830381600087803b158015610d6657600080fd5b505af1158015610d7a573d6000803e3d6000fd5b505050506040513d6020811015610d9057600080fd5b8101908080519060200190929190505050610daa57600080fd5b5050565b6000610db9826103e9565b90506000610dd882610dca85610956565b61119b90919063ffffffff16565b905060008111610de757600080fd5b8273ffffffffffffffffffffffffffffffffffffffff163373ffffffffffffffffffffffffffffffffffffffff1614610e1f57600080fd5b600460009054906101000a900473ffffffffffffffffffffffffffffffffffffffff1673ffffffffffffffffffffffffffffffffffffffff1663a9059cbb84836040518363ffffffff1660e01b8152600401808373ffffffffffffffffffffffffffffffffffffffff1673ffffffffffffffffffffffffffffffffffffffff16815260200182815260200192505050602060405180830381600087803b158015610ec857600080fd5b505af1158015610edc573d6000803e3d6000fd5b505050506040513d6020811015610ef257600080fd5b810190808051906020019092919050505050600460009054906101000a900473ffffffffffffffffffffffffffffffffffffffff1673ffffffffffffffffffffffffffffffffffffffff1663a9059cbb6000846040518363ffffffff1660e01b8152600401808373ffffffffffffffffffffffffffffffffffffffff1673ffffffffffffffffffffffffffffffffffffffff16815260200182815260200192505050602060405180830381600087803b158015610fae57600080fd5b505af1158015610fc2573d6000803e3d6000fd5b505050506040513d6020811015610fd857600080fd5b810190808051906020019092919050505050610fff8260025461123e90919063ffffffff16565b600281905550600360009054906101000a900473ffffffffffffffffffffffffffffffffffffffff1673ffffffffffffffffffffffffffffffffffffffff16638d56e53984306040518363ffffffff1660e01b815260040180806020018473ffffffffffffffffffffffffffffffffffffffff1673ffffffffffffffffffffffffffffffffffffffff1681526020018373ffffffffffffffffffffffffffffffffffffffff1673ffffffffffffffffffffffffffffffffffffffff168152602001828103825260048152602001807f59464d53000000000000000000000000000000000000000000000000000000008152506020019350505050600060405180830381600087803b15801561111357600080fd5b505af1158015611127573d6000803e3d6000fd5b505050506111348361125d565b505050565b6001818154811061114657fe5b906000526020600020016000915054906101000a900473ffffffffffffffffffffffffffffffffffffffff1681565b600080821161118357600080fd5b600082848161118e57fe5b0490508091505092915050565b6000828211156111aa57600080fd5b600082840390508091505092915050565b6000806127108402905060006111f7600a6111e960058786816111da57fe5b0461123e90919063ffffffff16565b61117590919063ffffffff16565b9050809250505092915050565b6000808314156112175760009050611238565b600082840290508284828161122857fe5b041461123357600080fd5b809150505b92915050565b60008082840190508381101561125357600080fd5b8091505092915050565b600080600090506001805490508110156112e1578273ffffffffffffffffffffffffffffffffffffffff166001828154811061129557fe5b9060005260206000200160009054906101000a900473ffffffffffffffffffffffffffffffffffffffff1673ffffffffffffffffffffffffffffffffffffffff1614156112e0578091505b5b50600180808054905003815481106112f557fe5b9060005260206000200160009054906101000a900473ffffffffffffffffffffffffffffffffffffffff166001828154811061132d57fe5b9060005260206000200160006101000a81548173ffffffffffffffffffffffffffffffffffffffff021916908373ffffffffffffffffffffffffffffffffffffffff160217905550600180548061138057fe5b6001900381819060005260206000200160006101000a81549073ffffffffffffffffffffffffffffffffffffffff02191690559055505056fea264697066735822122037920109441ff6979983f4a0988d4b8f10cb7eb19c8939409cca5ab0abe461ec64736f6c63430006080033",
  "immutableReferences": {},
  "source": "pragma solidity 0.6.8;\n\nlibrary SafeMath {\n  /**\n  * @dev Multiplies two unsigned integers, reverts on overflow.\n  */\n  function mul(uint256 a, uint256 b) internal pure returns (uint256) {\n    // Gas optimization: this is cheaper than requiring 'a' not being zero, but the\n    // benefit is lost if 'b' is also tested.\n    // See: https://github.com/OpenZeppelin/openzeppelin-solidity/pull/522\n    if (a == 0) {\n        return 0;\n    }\n\n    uint256 c = a * b;\n    require(c / a == b);\n\n    return c;\n  }\n\n  /**\n  * @dev Integer division of two unsigned integers truncating the quotient, reverts on division by zero.\n  */\n  function div(uint256 a, uint256 b) internal pure returns (uint256) {\n    // Solidity only automatically asserts when dividing by 0\n    require(b > 0);\n    uint256 c = a / b;\n    // assert(a == b * c + a % b); // There is no case in which this doesn't hold\n\n    return c;\n  }\n\n  /**\n  * @dev Subtracts two unsigned integers, reverts on overflow (i.e. if subtrahend is greater than minuend).\n  */\n  function sub(uint256 a, uint256 b) internal pure returns (uint256) {\n    require(b <= a);\n    uint256 c = a - b;\n\n    return c;\n  }\n\n  /**\n  * @dev Adds two unsigned integers, reverts on overflow.\n  */\n  function add(uint256 a, uint256 b) internal pure returns (uint256) {\n    uint256 c = a + b;\n    require(c >= a);\n\n    return c;\n  }\n\n  /**\n  * @dev Divides two unsigned integers and returns the remainder (unsigned integer modulo),\n  * reverts when dividing by zero.\n  */\n  function mod(uint256 a, uint256 b) internal pure returns (uint256) {\n    require(b != 0);\n    return a % b;\n  }\n}\n\ninterface ERC20 {\n  function balanceOf(address who) external view returns (uint256);\n  function transfer(address to, uint value) external returns (bool success);\n}\n\ninterface CuraAnnonaes {\n  function getDailyReward() external view returns (uint256);\n  function getNumberOfVaults() external view returns (uint256);\n  function getUserBalanceInVault(string calldata vault, address user) external view returns (uint256);\n  function stake(string calldata, address receiver, uint256 amount, address _vault) external returns (bool);\n  function unstake(string calldata vault, address receiver, address _vault) external;\n  function updateVaultData(string calldata vault, address who, address user, uint value) external;\n}\n\n// https://en.wikipedia.org/wiki/Cura_Annonae\ncontract YFMSVault {\n  using SafeMath for uint256;\n\n  // variables.\n  address public owner;\n  address[] public stakers; // tracks all addresses in vault.\n  uint256 public burnTotal = 0;\n  CuraAnnonaes public CuraAnnonae;\n  ERC20 public YFMSToken;\n  \n  constructor(address _cura, address _token) public {\n    owner = msg.sender;\n    CuraAnnonae = CuraAnnonaes(_cura);\n    YFMSToken = ERC20(_token);\n  }\n\n  // balance of a user in the vault.\n  function getUserBalance(address _from) public view returns (uint256) {\n    return CuraAnnonae.getUserBalanceInVault(\"YFMS\", _from);\n  }\n\n  // returns all users currently staking in this vault.\n  function getStakers() public view returns (address[] memory) {\n    return stakers; \n  }\n\n  function getUnstakingFee(address _user) public view returns (uint256) {\n    uint256 _balance = getUserBalance(_user);\n    return _balance / 10000 * 250;\n  }\n\n  function cleanStakersArray(address user) internal {\n    uint256 index;\n    // search the array for the user.\n    for (uint i=0; i < stakers.length; i++) {\n      if (stakers[i] == user)\n        index = i;\n      break;\n    }\n    // swap the last user in the array for the current unstaked user.\n    stakers[index] = stakers[stakers.length - 1];\n    // remove the last element (empty)\n    stakers.pop();\n  }\n\n  function stakeYFMS(uint256 _amount, address _from) public {\n    // add user to stakers array if not currently present.\n    require(msg.sender == _from);\n    require(_amount <= YFMSToken.balanceOf(_from));\n    if (getUserBalance(_from) == 0)\n      stakers.push(_from);\n    require(CuraAnnonae.stake(\"YFMS\", _from, _amount, address(this)));\n  }\n\n  function unstakeYFMS(address _to) public {\n    uint256 _unstakingFee = getUnstakingFee(_to);\n    uint256 _amount = getUserBalance(_to).sub(_unstakingFee);\n    // ensure data integrity.\n    require(_amount > 0);\n    require(msg.sender == _to);\n    // first transfer funds back to the user then burn the unstaking fee.\n    YFMSToken.transfer(_to, _amount);\n    YFMSToken.transfer(address(0), _unstakingFee);\n    // add to burn total.\n    burnTotal = burnTotal.add(_unstakingFee); \n    // unstake.\n    CuraAnnonae.unstake(\"YFMS\", _to, address(this));\n    // remove user from array.\n    cleanStakersArray(_to);\n  }\n\n  function ratioMath(uint256 _numerator, uint256 _denominator) internal pure returns (uint256) {\n    uint256 numerator = _numerator * 10 ** 4; // precision is 3 decimal places %0.000\n    uint256 quotient = (numerator / _denominator).add(5).div(10);\n    return quotient;\n  }\n\n  // daily call to distribute vault rewards to users who have staked.\n  function distributeVaultRewards () public {\n    require(msg.sender == owner);\n    uint256 _reward = CuraAnnonae.getDailyReward();\n    uint256 _vaults = CuraAnnonae.getNumberOfVaults();\n    uint256 _vaultReward = _reward.div(_vaults);\n    // remove daily reward from address(this) total.\n    uint256 _pool = YFMSToken.balanceOf(address(this)).sub(_vaultReward);\n    uint256 _userBalance;\n    uint256 _earned;\n    // iterate through stakers array and distribute rewards based on % staked.\n    for (uint i = 0; i < stakers.length; i++) {\n      _userBalance = getUserBalance(stakers[i]);\n      if (_userBalance > 0) {\n        _earned = ratioMath(_userBalance, _pool).mul(_vaultReward / 1000);\n        // update the vault data.\n        CuraAnnonae.updateVaultData(\"YFMS\", address(this), stakers[i], _earned);\n      }\n    }\n  }\n}\n",
  "sourcePath": "/home/spyder/Programming/Projects/YFMS/yfms-core/src/contracts/YFMSVault.sol",
  "compiler": {
    "name": "solc",
    "version": "0.6.8+commit.0bbfe453.Emscripten.clang"
  },
  "schemaVersion": "3.2.3",
  "updatedAt": "2020-09-25T21:33:39.458Z",
  "networkType": "ethereum",
  "devdoc": {
    "methods": {}
  },
  "userdoc": {
    "methods": {}
  }
}