{
  "contractName": "YFMSTokenLocks",
  "abi": [
    {
      "inputs": [
        {
          "internalType": "address",
          "name": "_wallet",
          "type": "address"
        }
      ],
      "stateMutability": "nonpayable",
      "type": "constructor"
    },
    {
      "inputs": [],
      "name": "YFMSLockedRewards",
      "outputs": [
        {
          "internalType": "uint256",
          "name": "",
          "type": "uint256"
        }
      ],
      "stateMutability": "view",
      "type": "function"
    },
    {
      "inputs": [],
      "name": "YFMSToken",
      "outputs": [
        {
          "internalType": "contract ERC20",
          "name": "",
          "type": "address"
        }
      ],
      "stateMutability": "view",
      "type": "function"
    },
    {
      "inputs": [],
      "name": "endDateRewards",
      "outputs": [
        {
          "internalType": "uint256",
          "name": "",
          "type": "uint256"
        }
      ],
      "stateMutability": "view",
      "type": "function"
    },
    {
      "inputs": [],
      "name": "owner",
      "outputs": [
        {
          "internalType": "address",
          "name": "",
          "type": "address"
        }
      ],
      "stateMutability": "view",
      "type": "function"
    },
    {
      "inputs": [],
      "name": "startDateRewards",
      "outputs": [
        {
          "internalType": "uint256",
          "name": "",
          "type": "uint256"
        }
      ],
      "stateMutability": "view",
      "type": "function"
    },
    {
      "inputs": [
        {
          "internalType": "uint256",
          "name": "_amount",
          "type": "uint256"
        }
      ],
      "name": "lockRewardsTokens",
      "outputs": [],
      "stateMutability": "nonpayable",
      "type": "function"
    },
    {
      "inputs": [
        {
          "internalType": "address",
          "name": "_to",
          "type": "address"
        },
        {
          "internalType": "uint256",
          "name": "_amount",
          "type": "uint256"
        }
      ],
      "name": "withdrawRewardsTokens",
      "outputs": [],
      "stateMutability": "nonpayable",
      "type": "function"
    },
    {
      "inputs": [],
      "name": "incrementTimelockOneDay",
      "outputs": [],
      "stateMutability": "nonpayable",
      "type": "function"
    },
    {
      "inputs": [],
      "name": "balanceOf",
      "outputs": [
        {
          "internalType": "uint256",
          "name": "",
          "type": "uint256"
        }
      ],
      "stateMutability": "view",
      "type": "function"
    }
  ],
  "bytecode": "0x608060405234801561001057600080fd5b506040516108373803806108378339818101604052602081101561003357600080fd5b810190808051906020019092919050505033600360006101000a81548173ffffffffffffffffffffffffffffffffffffffff021916908373ffffffffffffffffffffffffffffffffffffffff16021790555080600460006101000a81548173ffffffffffffffffffffffffffffffffffffffff021916908373ffffffffffffffffffffffffffffffffffffffff16021790555050610761806100d66000396000f3fe608060405234801561001057600080fd5b50600436106100935760003560e01c8063899fde1f11610066578063899fde1f1461014c5780638da5cb5b1461016a578063b5b55e7d146101b4578063edb194a214610202578063f9b925241461020c57610093565b8063021e63c11461009857806330d750ac146100e2578063722713f7146101105780637fa9b2941461012e575b600080fd5b6100a061022a565b604051808273ffffffffffffffffffffffffffffffffffffffff1673ffffffffffffffffffffffffffffffffffffffff16815260200191505060405180910390f35b61010e600480360360208110156100f857600080fd5b8101908080359060200190929190505050610250565b005b6101186104a0565b6040518082815260200191505060405180910390f35b6101366104aa565b6040518082815260200191505060405180910390f35b6101546104b0565b6040518082815260200191505060405180910390f35b6101726104b6565b604051808273ffffffffffffffffffffffffffffffffffffffff1673ffffffffffffffffffffffffffffffffffffffff16815260200191505060405180910390f35b610200600480360360408110156101ca57600080fd5b81019080803573ffffffffffffffffffffffffffffffffffffffff169060200190929190803590602001909291905050506104dc565b005b61020a61066c565b005b6102146106e6565b6040518082815260200191505060405180910390f35b600460009054906101000a900473ffffffffffffffffffffffffffffffffffffffff1681565b600360009054906101000a900473ffffffffffffffffffffffffffffffffffffffff1673ffffffffffffffffffffffffffffffffffffffff163373ffffffffffffffffffffffffffffffffffffffff16146102aa57600080fd5b80600460009054906101000a900473ffffffffffffffffffffffffffffffffffffffff1673ffffffffffffffffffffffffffffffffffffffff166370a08231336040518263ffffffff1660e01b8152600401808273ffffffffffffffffffffffffffffffffffffffff1673ffffffffffffffffffffffffffffffffffffffff16815260200191505060206040518083038186803b15801561034a57600080fd5b505afa15801561035e573d6000803e3d6000fd5b505050506040513d602081101561037457600080fd5b8101908080519060200190929190505050101561039057600080fd5b80600281905550426000819055506103b26002426106ec90919063ffffffff16565b600181905550600460009054906101000a900473ffffffffffffffffffffffffffffffffffffffff1673ffffffffffffffffffffffffffffffffffffffff1663a9059cbb30836040518363ffffffff1660e01b8152600401808373ffffffffffffffffffffffffffffffffffffffff1673ffffffffffffffffffffffffffffffffffffffff16815260200182815260200192505050602060405180830381600087803b15801561046157600080fd5b505af1158015610475573d6000803e3d6000fd5b505050506040513d602081101561048b57600080fd5b81019080805190602001909291905050505050565b6000600254905090565b60015481565b60025481565b600360009054906101000a900473ffffffffffffffffffffffffffffffffffffffff1681565b600360009054906101000a900473ffffffffffffffffffffffffffffffffffffffff1673ffffffffffffffffffffffffffffffffffffffff163373ffffffffffffffffffffffffffffffffffffffff161461053657600080fd5b60025481111561054557600080fd5b60015461055d6000544261070b90919063ffffffff16565b101561056857600080fd5b61057d8160025461070b90919063ffffffff16565b600281905550600460009054906101000a900473ffffffffffffffffffffffffffffffffffffffff1673ffffffffffffffffffffffffffffffffffffffff1663a9059cbb83836040518363ffffffff1660e01b8152600401808373ffffffffffffffffffffffffffffffffffffffff1673ffffffffffffffffffffffffffffffffffffffff16815260200182815260200192505050602060405180830381600087803b15801561062c57600080fd5b505af1158015610640573d6000803e3d6000fd5b505050506040513d602081101561065657600080fd5b8101908080519060200190929190505050505050565b600360009054906101000a900473ffffffffffffffffffffffffffffffffffffffff1673ffffffffffffffffffffffffffffffffffffffff163373ffffffffffffffffffffffffffffffffffffffff16146106c657600080fd5b6106de620151806001546106ec90919063ffffffff16565b600181905550565b60005481565b60008082840190508381101561070157600080fd5b8091505092915050565b60008282111561071a57600080fd5b60008284039050809150509291505056fea26469706673582212208dd05c0ff0e58dec2e751bb760153c21ca8d105f61ac6f5bab8f6042f1fa8bcd64736f6c63430006000033",
  "source": "pragma solidity 0.6.0;\n\nlibrary SafeMath {\n  /**\n  * @dev Multiplies two unsigned integers, reverts on overflow.\n  */\n  function mul(uint256 a, uint256 b) internal pure returns (uint256) {\n    // Gas optimization: this is cheaper than requiring 'a' not being zero, but the\n    // benefit is lost if 'b' is also tested.\n    // See: https://github.com/OpenZeppelin/openzeppelin-solidity/pull/522\n    if (a == 0) {\n        return 0;\n    }\n\n    uint256 c = a * b;\n    require(c / a == b);\n\n    return c;\n  }\n\n  /**\n  * @dev Integer division of two unsigned integers truncating the quotient, reverts on division by zero.\n  */\n  function div(uint256 a, uint256 b) internal pure returns (uint256) {\n    // Solidity only automatically asserts when dividing by 0\n    require(b > 0);\n    uint256 c = a / b;\n    // assert(a == b * c + a % b); // There is no case in which this doesn't hold\n\n    return c;\n  }\n\n  /**\n  * @dev Subtracts two unsigned integers, reverts on overflow (i.e. if subtrahend is greater than minuend).\n  */\n  function sub(uint256 a, uint256 b) internal pure returns (uint256) {\n    require(b <= a);\n    uint256 c = a - b;\n\n    return c;\n  }\n\n  /**\n  * @dev Adds two unsigned integers, reverts on overflow.\n  */\n  function add(uint256 a, uint256 b) internal pure returns (uint256) {\n    uint256 c = a + b;\n    require(c >= a);\n\n    return c;\n  }\n\n  /**\n  * @dev Divides two unsigned integers and returns the remainder (unsigned integer modulo),\n  * reverts when dividing by zero.\n  */\n  function mod(uint256 a, uint256 b) internal pure returns (uint256) {\n    require(b != 0);\n    return a % b;\n  }\n}\n\ninterface ERC20 {\n  function balanceOf(address who) external view returns (uint256);\n  function transfer(address to, uint value) external  returns (bool success);\n  function transferFrom(address from, address to, uint256 value) external returns (bool success);\n}\n\ncontract YFMSTokenLocks {\n  using SafeMath for uint256;\n\n  uint256 public startDateRewards;\n  uint256 public endDateRewards;\n  uint256 public YFMSLockedRewards;\n  address public owner;\n  ERC20 public YFMSToken;\n\n  constructor(address _wallet) public {\n    owner = msg.sender; \n    YFMSToken = ERC20(_wallet);\n  }\n\n  // < 20,500 YFMS\n  function lockRewardsTokens (uint256 _amount) public {\n    require(msg.sender == owner);\n    require(YFMSToken.balanceOf(msg.sender) >= _amount);\n    YFMSLockedRewards = _amount;\n    startDateRewards = now;\n    endDateRewards = now.add(2 seconds);\n    YFMSToken.transfer(address(this), _amount);\n  }\n\n  function withdrawRewardsTokens(address _to, uint256 _amount) public {\n    require(msg.sender == owner);\n    require(_amount <= YFMSLockedRewards);\n    require(now.sub(startDateRewards) >= endDateRewards);\n    YFMSLockedRewards = YFMSLockedRewards.sub(_amount);\n    YFMSToken.transfer(_to, _amount);\n  }\n\n  function incrementTimelockOneDay() public {\n    require(msg.sender == owner);\n    endDateRewards = endDateRewards.add(1 days); \n  }\n\n  function balanceOf() public view returns (uint256) {\n    return YFMSLockedRewards;\n  }\n}\n",
  "sourcePath": "/home/spyder/Programming/Projects/YFMS/yfms-core/src/contracts/YFMSTokenLock.sol",
  "compiler": {
    "name": "solc",
    "version": "0.6.0+commit.26b70077.Emscripten.clang"
  },
  "schemaVersion": "3.2.3",
  "updatedAt": "2020-09-22T18:31:49.371Z",
  "devdoc": {
    "methods": {}
  },
  "userdoc": {
    "methods": {}
  }
}