{
  "contractName": "YFMSToken",
  "abi": [
    {
      "inputs": [],
      "stateMutability": "nonpayable",
      "type": "constructor"
    },
    {
      "anonymous": false,
      "inputs": [
        {
          "indexed": true,
          "internalType": "address",
          "name": "owner",
          "type": "address"
        },
        {
          "indexed": true,
          "internalType": "address",
          "name": "spender",
          "type": "address"
        },
        {
          "indexed": false,
          "internalType": "uint256",
          "name": "value",
          "type": "uint256"
        }
      ],
      "name": "Approval",
      "type": "event"
    },
    {
      "anonymous": false,
      "inputs": [
        {
          "indexed": true,
          "internalType": "address",
          "name": "previousOwner",
          "type": "address"
        },
        {
          "indexed": true,
          "internalType": "address",
          "name": "newOwner",
          "type": "address"
        }
      ],
      "name": "OwnershipTransferred",
      "type": "event"
    },
    {
      "anonymous": false,
      "inputs": [
        {
          "indexed": true,
          "internalType": "address",
          "name": "from",
          "type": "address"
        },
        {
          "indexed": true,
          "internalType": "address",
          "name": "to",
          "type": "address"
        },
        {
          "indexed": false,
          "internalType": "uint256",
          "name": "value",
          "type": "uint256"
        }
      ],
      "name": "Transfer",
      "type": "event"
    },
    {
      "inputs": [
        {
          "internalType": "address",
          "name": "",
          "type": "address"
        }
      ],
      "name": "_balanceOf",
      "outputs": [
        {
          "internalType": "uint256",
          "name": "",
          "type": "uint256"
        }
      ],
      "stateMutability": "view",
      "type": "function",
      "constant": true
    },
    {
      "inputs": [],
      "name": "_owner",
      "outputs": [
        {
          "internalType": "address",
          "name": "",
          "type": "address"
        }
      ],
      "stateMutability": "view",
      "type": "function",
      "constant": true
    },
    {
      "inputs": [],
      "name": "_presaleBurnTotal",
      "outputs": [
        {
          "internalType": "uint256",
          "name": "",
          "type": "uint256"
        }
      ],
      "stateMutability": "view",
      "type": "function",
      "constant": true
    },
    {
      "inputs": [],
      "name": "_totalSupply",
      "outputs": [
        {
          "internalType": "uint256",
          "name": "",
          "type": "uint256"
        }
      ],
      "stateMutability": "view",
      "type": "function",
      "constant": true
    },
    {
      "inputs": [
        {
          "internalType": "address",
          "name": "",
          "type": "address"
        },
        {
          "internalType": "address",
          "name": "",
          "type": "address"
        }
      ],
      "name": "allowance",
      "outputs": [
        {
          "internalType": "uint256",
          "name": "",
          "type": "uint256"
        }
      ],
      "stateMutability": "view",
      "type": "function",
      "constant": true
    },
    {
      "inputs": [],
      "name": "decimals",
      "outputs": [
        {
          "internalType": "uint256",
          "name": "",
          "type": "uint256"
        }
      ],
      "stateMutability": "view",
      "type": "function",
      "constant": true
    },
    {
      "inputs": [],
      "name": "name",
      "outputs": [
        {
          "internalType": "string",
          "name": "",
          "type": "string"
        }
      ],
      "stateMutability": "view",
      "type": "function",
      "constant": true
    },
    {
      "inputs": [],
      "name": "owner",
      "outputs": [
        {
          "internalType": "address",
          "name": "",
          "type": "address"
        }
      ],
      "stateMutability": "view",
      "type": "function",
      "constant": true
    },
    {
      "inputs": [],
      "name": "renounceOwnership",
      "outputs": [],
      "stateMutability": "nonpayable",
      "type": "function"
    },
    {
      "inputs": [],
      "name": "symbol",
      "outputs": [
        {
          "internalType": "string",
          "name": "",
          "type": "string"
        }
      ],
      "stateMutability": "view",
      "type": "function",
      "constant": true
    },
    {
      "inputs": [
        {
          "internalType": "address",
          "name": "newOwner",
          "type": "address"
        }
      ],
      "name": "transferOwnership",
      "outputs": [],
      "stateMutability": "nonpayable",
      "type": "function"
    },
    {
      "inputs": [],
      "name": "totalSupply",
      "outputs": [
        {
          "internalType": "uint256",
          "name": "",
          "type": "uint256"
        }
      ],
      "stateMutability": "view",
      "type": "function",
      "constant": true
    },
    {
      "inputs": [
        {
          "internalType": "address",
          "name": "who",
          "type": "address"
        }
      ],
      "name": "balanceOf",
      "outputs": [
        {
          "internalType": "uint256",
          "name": "",
          "type": "uint256"
        }
      ],
      "stateMutability": "view",
      "type": "function",
      "constant": true
    },
    {
      "inputs": [
        {
          "internalType": "address",
          "name": "_to",
          "type": "address"
        },
        {
          "internalType": "uint256",
          "name": "_value",
          "type": "uint256"
        }
      ],
      "name": "transfer",
      "outputs": [
        {
          "internalType": "bool",
          "name": "success",
          "type": "bool"
        }
      ],
      "stateMutability": "nonpayable",
      "type": "function"
    },
    {
      "inputs": [
        {
          "internalType": "uint256",
          "name": "_burnAmount",
          "type": "uint256"
        },
        {
          "internalType": "bool",
          "name": "_presaleBurn",
          "type": "bool"
        }
      ],
      "name": "burn",
      "outputs": [
        {
          "internalType": "bool",
          "name": "success",
          "type": "bool"
        }
      ],
      "stateMutability": "nonpayable",
      "type": "function"
    },
    {
      "inputs": [
        {
          "internalType": "address",
          "name": "_spender",
          "type": "address"
        },
        {
          "internalType": "uint256",
          "name": "_value",
          "type": "uint256"
        }
      ],
      "name": "approve",
      "outputs": [
        {
          "internalType": "bool",
          "name": "success",
          "type": "bool"
        }
      ],
      "stateMutability": "nonpayable",
      "type": "function"
    },
    {
      "inputs": [
        {
          "internalType": "address",
          "name": "_from",
          "type": "address"
        },
        {
          "internalType": "address",
          "name": "_to",
          "type": "address"
        },
        {
          "internalType": "uint256",
          "name": "_value",
          "type": "uint256"
        }
      ],
      "name": "transferFrom",
      "outputs": [
        {
          "internalType": "bool",
          "name": "success",
          "type": "bool"
        }
      ],
      "stateMutability": "nonpayable",
      "type": "function"
    }
  ],
  "bytecode": "0x6080604052600060015534801561001557600080fd5b50336000806101000a81548173ffffffffffffffffffffffffffffffffffffffff021916908373ffffffffffffffffffffffffffffffffffffffff1602179055503373ffffffffffffffffffffffffffffffffffffffff16600073ffffffffffffffffffffffffffffffffffffffff167f8be0079c531659141344cd1fd0a4f28419497f9722a3daafe3b4186f6b6457e060405160405180910390a3336000806101000a81548173ffffffffffffffffffffffffffffffffffffffff021916908373ffffffffffffffffffffffffffffffffffffffff1602179055506012600a0a6188b8026002819055506012600a0a6188b802600360003373ffffffffffffffffffffffffffffffffffffffff1673ffffffffffffffffffffffffffffffffffffffff168152602001908152602001600020819055503373ffffffffffffffffffffffffffffffffffffffff16600073ffffffffffffffffffffffffffffffffffffffff167fddf252ad1be2c89b69c2b068fc378daa952ba7f163c4a11628f55a4df523b3ef6012600a0a6188b8026040518082815260200191505060405180910390a361128b806101c96000396000f3fe608060405234801561001057600080fd5b506004361061010b5760003560e01c80638da5cb5b116100a2578063b2bdfa7b11610071578063b2bdfa7b146104c0578063cca3e8321461050a578063d4b5d4c814610562578063dd62ed3e14610580578063f2fde38b146105f85761010b565b80638da5cb5b1461033b57806395d89b41146103855780639fac68cb14610408578063a9059cbb1461045a5761010b565b8063313ce567116100de578063313ce5671461029d5780633eaaf86b146102bb57806370a08231146102d9578063715018a6146103315761010b565b806306fdde0314610110578063095ea7b31461019357806318160ddd146101f957806323b872dd14610217575b600080fd5b61011861063c565b6040518080602001828103825283818151815260200191508051906020019080838360005b8381101561015857808201518184015260208101905061013d565b50505050905090810190601f1680156101855780820380516001836020036101000a031916815260200191505b509250505060405180910390f35b6101df600480360360408110156101a957600080fd5b81019080803573ffffffffffffffffffffffffffffffffffffffff16906020019092919080359060200190929190505050610675565b604051808215151515815260200191505060405180910390f35b6102016107a0565b6040518082815260200191505060405180910390f35b6102836004803603606081101561022d57600080fd5b81019080803573ffffffffffffffffffffffffffffffffffffffff169060200190929190803573ffffffffffffffffffffffffffffffffffffffff169060200190929190803590602001909291905050506107aa565b604051808215151515815260200191505060405180910390f35b6102a56109a6565b6040518082815260200191505060405180910390f35b6102c36109ab565b6040518082815260200191505060405180910390f35b61031b600480360360208110156102ef57600080fd5b81019080803573ffffffffffffffffffffffffffffffffffffffff1690602001909291905050506109b1565b6040518082815260200191505060405180910390f35b6103396109fa565b005b610343610b7b565b604051808273ffffffffffffffffffffffffffffffffffffffff1673ffffffffffffffffffffffffffffffffffffffff16815260200191505060405180910390f35b61038d610ba4565b6040518080602001828103825283818151815260200191508051906020019080838360005b838110156103cd5780820151818401526020810190506103b2565b50505050905090810190601f1680156103fa5780820380516001836020036101000a031916815260200191505b509250505060405180910390f35b6104406004803603604081101561041e57600080fd5b8101908080359060200190929190803515159060200190929190505050610bdd565b604051808215151515815260200191505060405180910390f35b6104a66004803603604081101561047057600080fd5b81019080803573ffffffffffffffffffffffffffffffffffffffff16906020019092919080359060200190929190505050610d8b565b604051808215151515815260200191505060405180910390f35b6104c8610dee565b604051808273ffffffffffffffffffffffffffffffffffffffff1673ffffffffffffffffffffffffffffffffffffffff16815260200191505060405180910390f35b61054c6004803603602081101561052057600080fd5b81019080803573ffffffffffffffffffffffffffffffffffffffff169060200190929190505050610e13565b6040518082815260200191505060405180910390f35b61056a610e2b565b6040518082815260200191505060405180910390f35b6105e26004803603604081101561059657600080fd5b81019080803573ffffffffffffffffffffffffffffffffffffffff169060200190929190803573ffffffffffffffffffffffffffffffffffffffff169060200190929190505050610e31565b6040518082815260200191505060405180910390f35b61063a6004803603602081101561060e57600080fd5b81019080803573ffffffffffffffffffffffffffffffffffffffff169060200190929190505050610e56565b005b6040518060400160405280600b81526020017f5946204d6f6f6e73686f7400000000000000000000000000000000000000000081525081565b60008073ffffffffffffffffffffffffffffffffffffffff168373ffffffffffffffffffffffffffffffffffffffff1614156106b057600080fd5b81600460003373ffffffffffffffffffffffffffffffffffffffff1673ffffffffffffffffffffffffffffffffffffffff16815260200190815260200160002060008573ffffffffffffffffffffffffffffffffffffffff1673ffffffffffffffffffffffffffffffffffffffff168152602001908152602001600020819055508273ffffffffffffffffffffffffffffffffffffffff163373ffffffffffffffffffffffffffffffffffffffff167f8c5be1e5ebec7d5bd14f71427d1e84f3dd0314c0f7b2291e5b200ac8c7c3b925846040518082815260200191505060405180910390a36001905092915050565b6000600254905090565b6000600360008573ffffffffffffffffffffffffffffffffffffffff1673ffffffffffffffffffffffffffffffffffffffff168152602001908152602001600020548211156107f857600080fd5b600460008573ffffffffffffffffffffffffffffffffffffffff1673ffffffffffffffffffffffffffffffffffffffff16815260200190815260200160002060003373ffffffffffffffffffffffffffffffffffffffff1673ffffffffffffffffffffffffffffffffffffffff1681526020019081526020016000205482111561088157600080fd5b61091082600460008773ffffffffffffffffffffffffffffffffffffffff1673ffffffffffffffffffffffffffffffffffffffff16815260200190815260200160002060003373ffffffffffffffffffffffffffffffffffffffff1673ffffffffffffffffffffffffffffffffffffffff1681526020019081526020016000205461105c90919063ffffffff16565b600460008673ffffffffffffffffffffffffffffffffffffffff1673ffffffffffffffffffffffffffffffffffffffff16815260200190815260200160002060003373ffffffffffffffffffffffffffffffffffffffff1673ffffffffffffffffffffffffffffffffffffffff1681526020019081526020016000208190555061099b84848461107c565b600190509392505050565b601281565b60025481565b6000600360008373ffffffffffffffffffffffffffffffffffffffff1673ffffffffffffffffffffffffffffffffffffffff168152602001908152602001600020549050919050565b3373ffffffffffffffffffffffffffffffffffffffff166000809054906101000a900473ffffffffffffffffffffffffffffffffffffffff1673ffffffffffffffffffffffffffffffffffffffff1614610abc576040517f08c379a00000000000000000000000000000000000000000000000000000000081526004018080602001828103825260208152602001807f4f776e61626c653a2063616c6c6572206973206e6f7420746865206f776e657281525060200191505060405180910390fd5b600073ffffffffffffffffffffffffffffffffffffffff166000809054906101000a900473ffffffffffffffffffffffffffffffffffffffff1673ffffffffffffffffffffffffffffffffffffffff167f8be0079c531659141344cd1fd0a4f28419497f9722a3daafe3b4186f6b6457e060405160405180910390a360008060006101000a81548173ffffffffffffffffffffffffffffffffffffffff021916908373ffffffffffffffffffffffffffffffffffffffff160217905550565b60008060009054906101000a900473ffffffffffffffffffffffffffffffffffffffff16905090565b6040518060400160405280600481526020017f59464d530000000000000000000000000000000000000000000000000000000081525081565b60003373ffffffffffffffffffffffffffffffffffffffff166000809054906101000a900473ffffffffffffffffffffffffffffffffffffffff1673ffffffffffffffffffffffffffffffffffffffff1614610ca1576040517f08c379a00000000000000000000000000000000000000000000000000000000081526004018080602001828103825260208152602001807f4f776e61626c653a2063616c6c6572206973206e6f7420746865206f776e657281525060200191505060405180910390fd5b8115610d38576012600a0a61271002610cc58460015461121090919063ffffffff16565b1115610cd057600080fd5b610ce58360015461121090919063ffffffff16565b600181905550610d186000809054906101000a900473ffffffffffffffffffffffffffffffffffffffff1660008561107c565b610d2d8360025461105c90919063ffffffff16565b600281905550610d81565b610d656000809054906101000a900473ffffffffffffffffffffffffffffffffffffffff1660008561107c565b610d7a8360025461105c90919063ffffffff16565b6002819055505b6001905092915050565b600081600360003373ffffffffffffffffffffffffffffffffffffffff1673ffffffffffffffffffffffffffffffffffffffff168152602001908152602001600020541015610dd957600080fd5b610de433848461107c565b6001905092915050565b6000809054906101000a900473ffffffffffffffffffffffffffffffffffffffff1681565b60036020528060005260406000206000915090505481565b60015481565b6004602052816000526040600020602052806000526040600020600091509150505481565b3373ffffffffffffffffffffffffffffffffffffffff166000809054906101000a900473ffffffffffffffffffffffffffffffffffffffff1673ffffffffffffffffffffffffffffffffffffffff1614610f18576040517f08c379a00000000000000000000000000000000000000000000000000000000081526004018080602001828103825260208152602001807f4f776e61626c653a2063616c6c6572206973206e6f7420746865206f776e657281525060200191505060405180910390fd5b600073ffffffffffffffffffffffffffffffffffffffff168173ffffffffffffffffffffffffffffffffffffffff161415610f9e576040517f08c379a00000000000000000000000000000000000000000000000000000000081526004018080602001828103825260268152602001806112306026913960400191505060405180910390fd5b8073ffffffffffffffffffffffffffffffffffffffff166000809054906101000a900473ffffffffffffffffffffffffffffffffffffffff1673ffffffffffffffffffffffffffffffffffffffff167f8be0079c531659141344cd1fd0a4f28419497f9722a3daafe3b4186f6b6457e060405160405180910390a3806000806101000a81548173ffffffffffffffffffffffffffffffffffffffff021916908373ffffffffffffffffffffffffffffffffffffffff16021790555050565b60008282111561106b57600080fd5b600082840390508091505092915050565b6110ce81600360008673ffffffffffffffffffffffffffffffffffffffff1673ffffffffffffffffffffffffffffffffffffffff1681526020019081526020016000205461105c90919063ffffffff16565b600360008573ffffffffffffffffffffffffffffffffffffffff1673ffffffffffffffffffffffffffffffffffffffff1681526020019081526020016000208190555061116381600360008573ffffffffffffffffffffffffffffffffffffffff1673ffffffffffffffffffffffffffffffffffffffff1681526020019081526020016000205461121090919063ffffffff16565b600360008473ffffffffffffffffffffffffffffffffffffffff1673ffffffffffffffffffffffffffffffffffffffff168152602001908152602001600020819055508173ffffffffffffffffffffffffffffffffffffffff168373ffffffffffffffffffffffffffffffffffffffff167fddf252ad1be2c89b69c2b068fc378daa952ba7f163c4a11628f55a4df523b3ef836040518082815260200191505060405180910390a3505050565b60008082840190508381101561122557600080fd5b809150509291505056fe4f776e61626c653a206e6577206f776e657220697320746865207a65726f2061646472657373a2646970667358221220dd4a720c9123179f03e7174acb5c0d5e95d9b4264fc823e9445100fab282a55664736f6c63430006080033",
  "immutableReferences": {},
  "source": "pragma solidity 0.6.8;\n\nlibrary SafeMath {\n  /**\n  * @dev Multiplies two unsigned integers, reverts on overflow.\n  */\n  function mul(uint256 a, uint256 b) internal pure returns (uint256) {\n    // Gas optimization: this is cheaper than requiring 'a' not being zero, but the\n    // benefit is lost if 'b' is also tested.\n    // See: https://github.com/OpenZeppelin/openzeppelin-solidity/pull/522\n    if (a == 0) {\n        return 0;\n    }\n\n    uint256 c = a * b;\n    require(c / a == b);\n\n    return c;\n  }\n\n  /**\n  * @dev Integer division of two unsigned integers truncating the quotient, reverts on division by zero.\n  */\n  function div(uint256 a, uint256 b) internal pure returns (uint256) {\n    // Solidity only automatically asserts when dividing by 0\n    require(b > 0);\n    uint256 c = a / b;\n    // assert(a == b * c + a % b); // There is no case in which this doesn't hold\n    return c;\n  }\n\n  /**\n  * @dev Subtracts two unsigned integers, reverts on overflow (i.e. if subtrahend is greater than minuend).\n  */\n  function sub(uint256 a, uint256 b) internal pure returns (uint256) {\n    require(b <= a);\n    uint256 c = a - b;\n\n    return c;\n  }\n\n  /**\n  * @dev Adds two unsigned integers, reverts on overflow.\n  */\n  function add(uint256 a, uint256 b) internal pure returns (uint256) {\n    uint256 c = a + b;\n    require(c >= a);\n\n    return c;\n  }\n\n  /**\n  * @dev Divides two unsigned integers and returns the remainder (unsigned integer modulo),\n  * reverts when dividing by zero.\n  */\n  function mod(uint256 a, uint256 b) internal pure returns (uint256) {\n    require(b != 0);\n    return a % b;\n  }\n}\n\ncontract Ownable {\n  address public _owner;\n\n  event OwnershipTransferred(address indexed previousOwner, address indexed newOwner);\n\n  constructor () internal {\n    _owner = msg.sender;\n    emit OwnershipTransferred(address(0), msg.sender);\n  }\n\n  function owner() public view returns (address) {\n    return _owner;\n  }\n\n  modifier onlyOwner() {\n    require(_owner == msg.sender, \"Ownable: caller is not the owner\");\n    _;\n  }\n\n  function renounceOwnership() public virtual onlyOwner {\n    emit OwnershipTransferred(_owner, address(0));\n    _owner = address(0);\n  }\n\n  function transferOwnership(address newOwner) public virtual onlyOwner {\n    require(newOwner != address(0), \"Ownable: new owner is the zero address\");\n    emit OwnershipTransferred(_owner, newOwner);\n    _owner = newOwner;\n  }\n}\n\ncontract YFMSToken is Ownable {\n  using SafeMath for uint256;\n\n  // standard ERC20 variables. \n  string public constant name = \"YF Moonshot\";\n  string public constant symbol = \"YFMS\";\n  uint256 public constant decimals = 18;\n  // the supply will not exceed 35,000 YFMS\n  uint256 private constant _maximumSupply = 35000 * 10 ** decimals;\n  uint256 private constant _maximumPresaleBurnAmount = 10000 * 10 ** decimals;\n  uint256 public _presaleBurnTotal = 0;\n  uint256 public _totalSupply;\n\n  // events\n  event Transfer(address indexed from, address indexed to, uint256 value);\n  event Approval(address indexed owner, address indexed spender, uint256 value);\n\n  // mappings\n  mapping(address => uint256) public _balanceOf;\n  mapping(address => mapping(address => uint256)) public allowance;\n\n  constructor() public {\n    // transfer the entire supply into the address of the Contract creator.\n    _owner = msg.sender;\n    _totalSupply = _maximumSupply;\n    _balanceOf[msg.sender] = _maximumSupply;\n    emit Transfer(address(0x0), msg.sender, _maximumSupply);\n  }\n\n  function totalSupply () public view returns (uint256) {\n    return _totalSupply; \n  }\n\n  function balanceOf (address who) public view returns (uint256) {\n    return _balanceOf[who];\n  }\n\n  // ensure the address is valid.\n  function _transfer(address _from, address _to, uint256 _value) internal {\n    _balanceOf[_from] = _balanceOf[_from].sub(_value);\n    _balanceOf[_to] = _balanceOf[_to].add(_value);\n    emit Transfer(_from, _to, _value);\n  }\n\n  // send tokens\n  function transfer(address _to, uint256 _value) public returns (bool success) {\n    require(_balanceOf[msg.sender] >= _value);\n    _transfer(msg.sender, _to, _value);\n    return true;\n  }\n\n  // handles presale burn + staking burn.\n  function burn (uint256 _burnAmount, bool _presaleBurn) public onlyOwner returns (bool success) {\n    if (_presaleBurn) {\n      require(_presaleBurnTotal.add(_burnAmount) <= _maximumPresaleBurnAmount);\n      _presaleBurnTotal = _presaleBurnTotal.add(_burnAmount);\n      _transfer(_owner, address(0), _burnAmount);\n      _totalSupply = _totalSupply.sub(_burnAmount);\n    } else {\n      _transfer(_owner, address(0), _burnAmount);\n      _totalSupply = _totalSupply.sub(_burnAmount);\n    }\n    return true;\n  }\n\n  // approve tokens\n  function approve(address _spender, uint256 _value) public returns (bool success) {\n    require(_spender != address(0));\n    allowance[msg.sender][_spender] = _value;\n    emit Approval(msg.sender, _spender, _value);\n    return true;\n  }\n\n  // transfer from\n  function transferFrom(address _from, address _to, uint256 _value) public returns (bool success) {\n    require(_value <= _balanceOf[_from]);\n    require(_value <= allowance[_from][msg.sender]);\n    allowance[_from][msg.sender] = allowance[_from][msg.sender].sub(_value);\n    _transfer(_from, _to, _value);\n    return true;\n  }\n}\n",
  "sourcePath": "/home/spyder/Programming/Projects/YFMS/yfms-core/src/contracts/YFMSToken.sol",
  "compiler": {
    "name": "solc",
    "version": "0.6.8+commit.0bbfe453.Emscripten.clang"
  },
  "schemaVersion": "3.2.3",
  "updatedAt": "2020-09-24T23:58:55.310Z",
  "networkType": "ethereum",
  "devdoc": {
    "methods": {}
  },
  "userdoc": {
    "methods": {}
  }
}