{
  "contractName": "YFMSTokenSale",
  "abi": [
    {
      "inputs": [
        {
          "internalType": "address",
          "name": "_wallet",
          "type": "address"
        }
      ],
      "stateMutability": "nonpayable",
      "type": "constructor"
    },
    {
      "inputs": [],
      "name": "YFMSToken",
      "outputs": [
        {
          "internalType": "contract ERC20",
          "name": "",
          "type": "address"
        }
      ],
      "stateMutability": "view",
      "type": "function",
      "constant": true
    },
    {
      "inputs": [],
      "name": "collectedETH",
      "outputs": [
        {
          "internalType": "uint256",
          "name": "",
          "type": "uint256"
        }
      ],
      "stateMutability": "view",
      "type": "function",
      "constant": true
    },
    {
      "inputs": [],
      "name": "owner",
      "outputs": [
        {
          "internalType": "address payable",
          "name": "",
          "type": "address"
        }
      ],
      "stateMutability": "view",
      "type": "function",
      "constant": true
    },
    {
      "inputs": [],
      "name": "softCapMet",
      "outputs": [
        {
          "internalType": "bool",
          "name": "",
          "type": "bool"
        }
      ],
      "stateMutability": "view",
      "type": "function",
      "constant": true
    },
    {
      "inputs": [],
      "name": "startDate",
      "outputs": [
        {
          "internalType": "uint256",
          "name": "",
          "type": "uint256"
        }
      ],
      "stateMutability": "view",
      "type": "function",
      "constant": true
    },
    {
      "inputs": [],
      "name": "totalSold",
      "outputs": [
        {
          "internalType": "uint256",
          "name": "",
          "type": "uint256"
        }
      ],
      "stateMutability": "view",
      "type": "function",
      "constant": true
    },
    {
      "stateMutability": "payable",
      "type": "receive",
      "payable": true
    },
    {
      "inputs": [],
      "name": "contribute",
      "outputs": [],
      "stateMutability": "payable",
      "type": "function",
      "payable": true
    },
    {
      "inputs": [
        {
          "internalType": "address",
          "name": "from",
          "type": "address"
        }
      ],
      "name": "numberOfContributions",
      "outputs": [
        {
          "internalType": "uint256",
          "name": "",
          "type": "uint256"
        }
      ],
      "stateMutability": "view",
      "type": "function",
      "constant": true
    },
    {
      "inputs": [
        {
          "internalType": "address",
          "name": "from",
          "type": "address"
        }
      ],
      "name": "contributions",
      "outputs": [
        {
          "internalType": "uint256",
          "name": "",
          "type": "uint256"
        }
      ],
      "stateMutability": "view",
      "type": "function",
      "constant": true
    },
    {
      "inputs": [
        {
          "internalType": "address",
          "name": "from",
          "type": "address"
        }
      ],
      "name": "averagePurchaseRate",
      "outputs": [
        {
          "internalType": "uint256",
          "name": "",
          "type": "uint256"
        }
      ],
      "stateMutability": "view",
      "type": "function",
      "constant": true
    },
    {
      "inputs": [
        {
          "internalType": "address payable",
          "name": "from",
          "type": "address"
        }
      ],
      "name": "buyBackETH",
      "outputs": [],
      "stateMutability": "nonpayable",
      "type": "function"
    },
    {
      "inputs": [],
      "name": "withdrawETH",
      "outputs": [],
      "stateMutability": "nonpayable",
      "type": "function"
    },
    {
      "inputs": [],
      "name": "endPresale",
      "outputs": [],
      "stateMutability": "nonpayable",
      "type": "function"
    },
    {
      "inputs": [],
      "name": "burnYFMS",
      "outputs": [],
      "stateMutability": "nonpayable",
      "type": "function"
    },
    {
      "inputs": [],
      "name": "startSale",
      "outputs": [],
      "stateMutability": "nonpayable",
      "type": "function"
    },
    {
      "inputs": [],
      "name": "availableYFMS",
      "outputs": [
        {
          "internalType": "uint256",
          "name": "",
          "type": "uint256"
        }
      ],
      "stateMutability": "view",
      "type": "function",
      "constant": true
    }
  ],
  "bytecode": "0x60806040526000600560016101000a81548160ff02191690831515021790555060006006556006600c55600b600d556005600e556009600f55600460105534801561004957600080fd5b506040516124ad3803806124ad8339818101604052602081101561006c57600080fd5b810190808051906020019092919050505033600260006101000a81548173ffffffffffffffffffffffffffffffffffffffff021916908373ffffffffffffffffffffffffffffffffffffffff16021790555080600160006101000a81548173ffffffffffffffffffffffffffffffffffffffff021916908373ffffffffffffffffffffffffffffffffffffffff1602179055505061239e8061010f6000396000f3fe6080604052600436106100f75760003560e01c8063b6ce75311161008a578063df69292911610059578063df69292914610dc9578063dfccdef514610e2e578063e086e5ec14610e59578063ef2d75fe14610e7057610b13565b8063b6ce753114610d14578063be3853c914610d3f578063d7bb99ba14610d90578063dd1da86214610d9a57610b13565b80638da5cb5b116100c65780638da5cb5b14610c645780639106d7ba14610cbb578063a43be57b14610ce6578063b66a0e5d14610cfd57610b13565b8063021e63c114610b185780630b97bc8614610b6f57806342e94c9014610b9a5780638cf59dc814610bff57610b13565b36610b13576000600454118015610125575062093a8061012260045442610e8790919063ffffffff16565b11155b61012e57600080fd5b6000600160009054906101000a900473ffffffffffffffffffffffffffffffffffffffff1673ffffffffffffffffffffffffffffffffffffffff166370a08231306040518263ffffffff1660e01b8152600401808273ffffffffffffffffffffffffffffffffffffffff1673ffffffffffffffffffffffffffffffffffffffff16815260200191505060206040518083038186803b1580156101cf57600080fd5b505afa1580156101e3573d6000803e3d6000fd5b505050506040513d60208110156101f957600080fd5b81019080805190602001909291905050501161021457600080fd5b67016345785d8a0000341015801561023557506802b5e3af16b18800003411155b61023e57600080fd5b600560019054906101000a900460ff161561025857600080fd5b6201518061027160045442610e8790919063ffffffff16565b1161033f5761028a600634610ea790919063ffffffff16565b600b819055506102f76102a9600a600c54610ea790919063ffffffff16565b600960003373ffffffffffffffffffffffffffffffffffffffff1673ffffffffffffffffffffffffffffffffffffffff16815260200190815260200160002054610ee190919063ffffffff16565b600960003373ffffffffffffffffffffffffffffffffffffffff1673ffffffffffffffffffffffffffffffffffffffff16815260200190815260200160002081905550610794565b6201518061035860045442610e8790919063ffffffff16565b11801561037c57506202a30061037960045442610e8790919063ffffffff16565b11155b15610470576103a8600261039a600b34610ea790919063ffffffff16565b610f0090919063ffffffff16565b600b819055506104286103da60026103cc600a600d54610ea790919063ffffffff16565b610f0090919063ffffffff16565b600960003373ffffffffffffffffffffffffffffffffffffffff1673ffffffffffffffffffffffffffffffffffffffff16815260200190815260200160002054610ee190919063ffffffff16565b600960003373ffffffffffffffffffffffffffffffffffffffff1673ffffffffffffffffffffffffffffffffffffffff16815260200190815260200160002081905550610793565b6202a30061048960045442610e8790919063ffffffff16565b1180156104ad57506203f4806104aa60045442610e8790919063ffffffff16565b11155b1561057b576104c6600534610ea790919063ffffffff16565b600b819055506105336104e5600a600e54610ea790919063ffffffff16565b600960003373ffffffffffffffffffffffffffffffffffffffff1673ffffffffffffffffffffffffffffffffffffffff16815260200190815260200160002054610ee190919063ffffffff16565b600960003373ffffffffffffffffffffffffffffffffffffffff1673ffffffffffffffffffffffffffffffffffffffff16815260200190815260200160002081905550610792565b6203f48061059460045442610e8790919063ffffffff16565b1180156105b85750620546006105b560045442610e8790919063ffffffff16565b11155b156106ac576105e460026105d6600934610ea790919063ffffffff16565b610f0090919063ffffffff16565b600b819055506106646106166002610608600a600f54610ea790919063ffffffff16565b610f0090919063ffffffff16565b600960003373ffffffffffffffffffffffffffffffffffffffff1673ffffffffffffffffffffffffffffffffffffffff16815260200190815260200160002054610ee190919063ffffffff16565b600960003373ffffffffffffffffffffffffffffffffffffffff1673ffffffffffffffffffffffffffffffffffffffff16815260200190815260200160002081905550610791565b620546006106c560045442610e8790919063ffffffff16565b1115610790576106df600434610ea790919063ffffffff16565b600b8190555061074c6106fe600a601054610ea790919063ffffffff16565b600960003373ffffffffffffffffffffffffffffffffffffffff1673ffffffffffffffffffffffffffffffffffffffff16815260200190815260200160002054610ee190919063ffffffff16565b600960003373ffffffffffffffffffffffffffffffffffffffff1673ffffffffffffffffffffffffffffffffffffffff168152602001908152602001600020819055505b5b5b5b5b600160009054906101000a900473ffffffffffffffffffffffffffffffffffffffff1673ffffffffffffffffffffffffffffffffffffffff166370a08231306040518263ffffffff1660e01b8152600401808273ffffffffffffffffffffffffffffffffffffffff1673ffffffffffffffffffffffffffffffffffffffff16815260200191505060206040518083038186803b15801561083357600080fd5b505afa158015610847573d6000803e3d6000fd5b505050506040513d602081101561085d57600080fd5b8101908080519060200190929190505050600b54111561087c57600080fd5b610893600b54600054610ee190919063ffffffff16565b6000819055506108ae34600354610ee190919063ffffffff16565b600381905550610908600b54600860003373ffffffffffffffffffffffffffffffffffffffff1673ffffffffffffffffffffffffffffffffffffffff16815260200190815260200160002054610ee190919063ffffffff16565b600860003373ffffffffffffffffffffffffffffffffffffffff1673ffffffffffffffffffffffffffffffffffffffff1681526020019081526020016000208190555061099e6001600a60003373ffffffffffffffffffffffffffffffffffffffff1673ffffffffffffffffffffffffffffffffffffffff16815260200190815260200160002054610ee190919063ffffffff16565b600a60003373ffffffffffffffffffffffffffffffffffffffff1673ffffffffffffffffffffffffffffffffffffffff16815260200190815260200160002081905550600160009054906101000a900473ffffffffffffffffffffffffffffffffffffffff1673ffffffffffffffffffffffffffffffffffffffff1663a9059cbb33600b546040518363ffffffff1660e01b8152600401808373ffffffffffffffffffffffffffffffffffffffff1673ffffffffffffffffffffffffffffffffffffffff16815260200182815260200192505050602060405180830381600087803b158015610a8c57600080fd5b505af1158015610aa0573d6000803e3d6000fd5b505050506040513d6020811015610ab657600080fd5b810190808051906020019092919050505050600560009054906101000a900460ff16158015610af05750680821ab0d441498000060035410155b15610b11576001600560006101000a81548160ff0219169083151502179055505b005b600080fd5b348015610b2457600080fd5b50610b2d610f26565b604051808273ffffffffffffffffffffffffffffffffffffffff1673ffffffffffffffffffffffffffffffffffffffff16815260200191505060405180910390f35b348015610b7b57600080fd5b50610b84610f4c565b6040518082815260200191505060405180910390f35b348015610ba657600080fd5b50610be960048036036020811015610bbd57600080fd5b81019080803573ffffffffffffffffffffffffffffffffffffffff169060200190929190505050610f52565b6040518082815260200191505060405180910390f35b348015610c0b57600080fd5b50610c4e60048036036020811015610c2257600080fd5b81019080803573ffffffffffffffffffffffffffffffffffffffff169060200190929190505050610f9b565b6040518082815260200191505060405180910390f35b348015610c7057600080fd5b50610c79610fe4565b604051808273ffffffffffffffffffffffffffffffffffffffff1673ffffffffffffffffffffffffffffffffffffffff16815260200191505060405180910390f35b348015610cc757600080fd5b50610cd061100a565b6040518082815260200191505060405180910390f35b348015610cf257600080fd5b50610cfb611010565b005b348015610d0957600080fd5b50610d12611087565b005b348015610d2057600080fd5b50610d296110f8565b6040518082815260200191505060405180910390f35b348015610d4b57600080fd5b50610d8e60048036036020811015610d6257600080fd5b81019080803573ffffffffffffffffffffffffffffffffffffffff1690602001909291905050506111d9565b005b610d986113f0565b005b348015610da657600080fd5b50610daf611e07565b604051808215151515815260200191505060405180910390f35b348015610dd557600080fd5b50610e1860048036036020811015610dec57600080fd5b81019080803573ffffffffffffffffffffffffffffffffffffffff169060200190929190505050611e1a565b6040518082815260200191505060405180910390f35b348015610e3a57600080fd5b50610e43611e63565b6040518082815260200191505060405180910390f35b348015610e6557600080fd5b50610e6e611e69565b005b348015610e7c57600080fd5b50610e85612046565b005b600082821115610e9657600080fd5b600082840390508091505092915050565b600080831415610eba5760009050610edb565b6000828402905082848281610ecb57fe5b0414610ed657600080fd5b809150505b92915050565b600080828401905083811015610ef657600080fd5b8091505092915050565b6000808211610f0e57600080fd5b6000828481610f1957fe5b0490508091505092915050565b600160009054906101000a900473ffffffffffffffffffffffffffffffffffffffff1681565b60045481565b6000600860008373ffffffffffffffffffffffffffffffffffffffff1673ffffffffffffffffffffffffffffffffffffffff168152602001908152602001600020549050919050565b6000600960008373ffffffffffffffffffffffffffffffffffffffff1673ffffffffffffffffffffffffffffffffffffffff168152602001908152602001600020549050919050565b600260009054906101000a900473ffffffffffffffffffffffffffffffffffffffff1681565b60005481565b600260009054906101000a900473ffffffffffffffffffffffffffffffffffffffff1673ffffffffffffffffffffffffffffffffffffffff163373ffffffffffffffffffffffffffffffffffffffff161461106a57600080fd5b6001600560016101000a81548160ff021916908315150217905550565b600260009054906101000a900473ffffffffffffffffffffffffffffffffffffffff1673ffffffffffffffffffffffffffffffffffffffff163373ffffffffffffffffffffffffffffffffffffffff161480156110e657506000600454145b6110ef57600080fd5b42600481905550565b6000600160009054906101000a900473ffffffffffffffffffffffffffffffffffffffff1673ffffffffffffffffffffffffffffffffffffffff166370a08231306040518263ffffffff1660e01b8152600401808273ffffffffffffffffffffffffffffffffffffffff1673ffffffffffffffffffffffffffffffffffffffff16815260200191505060206040518083038186803b15801561119957600080fd5b505afa1580156111ad573d6000803e3d6000fd5b505050506040513d60208110156111c357600080fd5b8101908080519060200190929190505050905090565b62093a806111f260045442610e8790919063ffffffff16565b11801561120c5750600560009054906101000a900460ff16155b61121557600080fd5b6000600860008373ffffffffffffffffffffffffffffffffffffffff1673ffffffffffffffffffffffffffffffffffffffff168152602001908152602001600020541161126157600080fd5b6000611307600a60008473ffffffffffffffffffffffffffffffffffffffff1673ffffffffffffffffffffffffffffffffffffffff168152602001908152602001600020546112f9600a600960008773ffffffffffffffffffffffffffffffffffffffff1673ffffffffffffffffffffffffffffffffffffffff16815260200190815260200160002054610f0090919063ffffffff16565b610f0090919063ffffffff16565b90506000600860008473ffffffffffffffffffffffffffffffffffffffff1673ffffffffffffffffffffffffffffffffffffffff1681526020019081526020016000205490506000600860008573ffffffffffffffffffffffffffffffffffffffff1673ffffffffffffffffffffffffffffffffffffffff168152602001908152602001600020819055508273ffffffffffffffffffffffffffffffffffffffff166108fc6113bf8484610f0090919063ffffffff16565b9081150290604051600060405180830381858888f193505050501580156113ea573d6000803e3d6000fd5b50505050565b6000600454118015611419575062093a8061141660045442610e8790919063ffffffff16565b11155b61142257600080fd5b6000600160009054906101000a900473ffffffffffffffffffffffffffffffffffffffff1673ffffffffffffffffffffffffffffffffffffffff166370a08231306040518263ffffffff1660e01b8152600401808273ffffffffffffffffffffffffffffffffffffffff1673ffffffffffffffffffffffffffffffffffffffff16815260200191505060206040518083038186803b1580156114c357600080fd5b505afa1580156114d7573d6000803e3d6000fd5b505050506040513d60208110156114ed57600080fd5b81019080805190602001909291905050501161150857600080fd5b67016345785d8a0000341015801561152957506802b5e3af16b18800003411155b61153257600080fd5b600560019054906101000a900460ff161561154c57600080fd5b6201518061156560045442610e8790919063ffffffff16565b116116335761157e600634610ea790919063ffffffff16565b600b819055506115eb61159d600a600c54610ea790919063ffffffff16565b600960003373ffffffffffffffffffffffffffffffffffffffff1673ffffffffffffffffffffffffffffffffffffffff16815260200190815260200160002054610ee190919063ffffffff16565b600960003373ffffffffffffffffffffffffffffffffffffffff1673ffffffffffffffffffffffffffffffffffffffff16815260200190815260200160002081905550611a88565b6201518061164c60045442610e8790919063ffffffff16565b11801561167057506202a30061166d60045442610e8790919063ffffffff16565b11155b156117645761169c600261168e600b34610ea790919063ffffffff16565b610f0090919063ffffffff16565b600b8190555061171c6116ce60026116c0600a600d54610ea790919063ffffffff16565b610f0090919063ffffffff16565b600960003373ffffffffffffffffffffffffffffffffffffffff1673ffffffffffffffffffffffffffffffffffffffff16815260200190815260200160002054610ee190919063ffffffff16565b600960003373ffffffffffffffffffffffffffffffffffffffff1673ffffffffffffffffffffffffffffffffffffffff16815260200190815260200160002081905550611a87565b6202a30061177d60045442610e8790919063ffffffff16565b1180156117a157506203f48061179e60045442610e8790919063ffffffff16565b11155b1561186f576117ba600534610ea790919063ffffffff16565b600b819055506118276117d9600a600e54610ea790919063ffffffff16565b600960003373ffffffffffffffffffffffffffffffffffffffff1673ffffffffffffffffffffffffffffffffffffffff16815260200190815260200160002054610ee190919063ffffffff16565b600960003373ffffffffffffffffffffffffffffffffffffffff1673ffffffffffffffffffffffffffffffffffffffff16815260200190815260200160002081905550611a86565b6203f48061188860045442610e8790919063ffffffff16565b1180156118ac5750620546006118a960045442610e8790919063ffffffff16565b11155b156119a0576118d860026118ca600934610ea790919063ffffffff16565b610f0090919063ffffffff16565b600b8190555061195861190a60026118fc600a600f54610ea790919063ffffffff16565b610f0090919063ffffffff16565b600960003373ffffffffffffffffffffffffffffffffffffffff1673ffffffffffffffffffffffffffffffffffffffff16815260200190815260200160002054610ee190919063ffffffff16565b600960003373ffffffffffffffffffffffffffffffffffffffff1673ffffffffffffffffffffffffffffffffffffffff16815260200190815260200160002081905550611a85565b620546006119b960045442610e8790919063ffffffff16565b1115611a84576119d3600434610ea790919063ffffffff16565b600b81905550611a406119f2600a601054610ea790919063ffffffff16565b600960003373ffffffffffffffffffffffffffffffffffffffff1673ffffffffffffffffffffffffffffffffffffffff16815260200190815260200160002054610ee190919063ffffffff16565b600960003373ffffffffffffffffffffffffffffffffffffffff1673ffffffffffffffffffffffffffffffffffffffff168152602001908152602001600020819055505b5b5b5b5b600160009054906101000a900473ffffffffffffffffffffffffffffffffffffffff1673ffffffffffffffffffffffffffffffffffffffff166370a08231306040518263ffffffff1660e01b8152600401808273ffffffffffffffffffffffffffffffffffffffff1673ffffffffffffffffffffffffffffffffffffffff16815260200191505060206040518083038186803b158015611b2757600080fd5b505afa158015611b3b573d6000803e3d6000fd5b505050506040513d6020811015611b5157600080fd5b8101908080519060200190929190505050600b541115611b7057600080fd5b611b87600b54600054610ee190919063ffffffff16565b600081905550611ba234600354610ee190919063ffffffff16565b600381905550611bfc600b54600860003373ffffffffffffffffffffffffffffffffffffffff1673ffffffffffffffffffffffffffffffffffffffff16815260200190815260200160002054610ee190919063ffffffff16565b600860003373ffffffffffffffffffffffffffffffffffffffff1673ffffffffffffffffffffffffffffffffffffffff16815260200190815260200160002081905550611c926001600a60003373ffffffffffffffffffffffffffffffffffffffff1673ffffffffffffffffffffffffffffffffffffffff16815260200190815260200160002054610ee190919063ffffffff16565b600a60003373ffffffffffffffffffffffffffffffffffffffff1673ffffffffffffffffffffffffffffffffffffffff16815260200190815260200160002081905550600160009054906101000a900473ffffffffffffffffffffffffffffffffffffffff1673ffffffffffffffffffffffffffffffffffffffff1663a9059cbb33600b546040518363ffffffff1660e01b8152600401808373ffffffffffffffffffffffffffffffffffffffff1673ffffffffffffffffffffffffffffffffffffffff16815260200182815260200192505050602060405180830381600087803b158015611d8057600080fd5b505af1158015611d94573d6000803e3d6000fd5b505050506040513d6020811015611daa57600080fd5b810190808051906020019092919050505050600560009054906101000a900460ff16158015611de45750680821ab0d441498000060035410155b15611e05576001600560006101000a81548160ff0219169083151502179055505b565b600560009054906101000a900460ff1681565b6000600a60008373ffffffffffffffffffffffffffffffffffffffff1673ffffffffffffffffffffffffffffffffffffffff168152602001908152602001600020549050919050565b60035481565b600260009054906101000a900473ffffffffffffffffffffffffffffffffffffffff1673ffffffffffffffffffffffffffffffffffffffff163373ffffffffffffffffffffffffffffffffffffffff16148015611ec65750600047115b611ecf57600080fd5b60011515600560009054906101000a900460ff161515148015611f05575060011515600560019054906101000a900460ff161515145b611f0e57600080fd5b6000806006541415611f4857681b1ae4d6e2ef50000060035411611f36576003549050611f43565b681b1ae4d6e2ef50000090505b611f9c565b600042905062093a80611f6660075483610e8790919063ffffffff16565b1015611f7157600080fd5b681b1ae4d6e2ef50000060035411611f8d576003549150611f9a565b681b1ae4d6e2ef50000091505b505b42600781905550611fb96001600654610ee190919063ffffffff16565b600681905550611fd481600354610e8790919063ffffffff16565b600381905550600260009054906101000a900473ffffffffffffffffffffffffffffffffffffffff1673ffffffffffffffffffffffffffffffffffffffff166108fc829081150290604051600060405180830381858888f19350505050158015612042573d6000803e3d6000fd5b5050565b600260009054906101000a900473ffffffffffffffffffffffffffffffffffffffff1673ffffffffffffffffffffffffffffffffffffffff163373ffffffffffffffffffffffffffffffffffffffff1614801561217c57506000600160009054906101000a900473ffffffffffffffffffffffffffffffffffffffff1673ffffffffffffffffffffffffffffffffffffffff166370a08231306040518263ffffffff1660e01b8152600401808273ffffffffffffffffffffffffffffffffffffffff1673ffffffffffffffffffffffffffffffffffffffff16815260200191505060206040518083038186803b15801561213f57600080fd5b505afa158015612153573d6000803e3d6000fd5b505050506040513d602081101561216957600080fd5b8101908080519060200190929190505050115b801561219e575062093a8061219c60045442610e8790919063ffffffff16565b115b6121a757600080fd5b600160009054906101000a900473ffffffffffffffffffffffffffffffffffffffff1673ffffffffffffffffffffffffffffffffffffffff1663a9059cbb6000600160009054906101000a900473ffffffffffffffffffffffffffffffffffffffff1673ffffffffffffffffffffffffffffffffffffffff166370a08231306040518263ffffffff1660e01b8152600401808273ffffffffffffffffffffffffffffffffffffffff1673ffffffffffffffffffffffffffffffffffffffff16815260200191505060206040518083038186803b15801561228657600080fd5b505afa15801561229a573d6000803e3d6000fd5b505050506040513d60208110156122b057600080fd5b81019080805190602001909291905050506040518363ffffffff1660e01b8152600401808373ffffffffffffffffffffffffffffffffffffffff1673ffffffffffffffffffffffffffffffffffffffff16815260200182815260200192505050602060405180830381600087803b15801561232a57600080fd5b505af115801561233e573d6000803e3d6000fd5b505050506040513d602081101561235457600080fd5b81019080805190602001909291905050505056fea2646970667358221220810758a52d77ad480e8f5b264723b450f40af470df99d431d7b9f017e8df850864736f6c63430006000033",
  "source": "pragma solidity 0.6.0;\n\nlibrary SafeMath {\n  /**\n  * @dev Multiplies two unsigned integers, reverts on overflow.\n  */\n  function mul(uint256 a, uint256 b) internal pure returns (uint256) {\n    // Gas optimization: this is cheaper than requiring 'a' not being zero, but the\n    // benefit is lost if 'b' is also tested.\n    // See: https://github.com/OpenZeppelin/openzeppelin-solidity/pull/522\n    if (a == 0) {\n        return 0;\n    }\n\n    uint256 c = a * b;\n    require(c / a == b);\n\n    return c;\n  }\n\n  /**\n  * @dev Integer division of two unsigned integers truncating the quotient, reverts on division by zero.\n  */\n  function div(uint256 a, uint256 b) internal pure returns (uint256) {\n    // Solidity only automatically asserts when dividing by 0\n    require(b > 0);\n    uint256 c = a / b;\n    // assert(a == b * c + a % b); // There is no case in which this doesn't hold\n\n    return c;\n  }\n\n  /**\n  * @dev Subtracts two unsigned integers, reverts on overflow (i.e. if subtrahend is greater than minuend).\n  */\n  function sub(uint256 a, uint256 b) internal pure returns (uint256) {\n    require(b <= a);\n    uint256 c = a - b;\n\n    return c;\n  }\n\n  /**\n  * @dev Adds two unsigned integers, reverts on overflow.\n  */\n  function add(uint256 a, uint256 b) internal pure returns (uint256) {\n    uint256 c = a + b;\n    require(c >= a);\n\n    return c;\n  }\n\n  /**\n  * @dev Divides two unsigned integers and returns the remainder (unsigned integer modulo),\n  * reverts when dividing by zero.\n  */\n  function mod(uint256 a, uint256 b) internal pure returns (uint256) {\n    require(b != 0);\n    return a % b;\n  }\n}\n\ninterface ERC20 {\n  function balanceOf(address who) external view returns (uint256);\n  function allowance(address owner, address spender) external  view returns (uint256);\n  function transfer(address to, uint value) external  returns (bool success);\n  function transferFrom(address from, address to, uint256 value) external returns (bool success);\n  function approve(address spender, uint value) external returns (bool success);\n}\n\ncontract YFMSTokenSale {\n  using SafeMath for uint256;\n\n  uint256 public totalSold;\n  ERC20 public YFMSToken;\n  address payable public owner;\n  uint256 public collectedETH;\n  uint256 public startDate;\n  bool public softCapMet;\n  bool private presaleClosed = false;\n  uint256 private ethWithdrawals = 0;\n  uint256 private lastWithdrawal;\n\n  // tracks all contributors.\n  mapping(address => uint256) internal _contributions;\n  // adjusts for different conversion rates.\n  mapping(address => uint256) internal _averagePurchaseRate;\n  // total contributions from wallet.\n  mapping(address => uint256) internal _numberOfContributions;\n\n  constructor(address _wallet) public {\n    owner = msg.sender;\n    YFMSToken = ERC20(_wallet);\n  }\n\n  uint256 amount;\n  uint256 rateDay1 = 6;\n  uint256 rateDay2 = 11;\n  uint256 rateDay3 = 5;\n  uint256 rateDay4 = 9;\n  uint256 rateDay5 = 4;\n \n  // Converts ETH to YFMS and sends new YFMS to the sender\n  receive () external payable {\n    require(startDate > 0 && now.sub(startDate) <= 7 days);\n    require(YFMSToken.balanceOf(address(this)) > 0);\n    require(msg.value >= 0.1 ether && msg.value <= 50 ether);\n    require(!presaleClosed);\n     \n    if (now.sub(startDate) <= 1 days) {\n       amount = msg.value.mul(6);\n       _averagePurchaseRate[msg.sender] = _averagePurchaseRate[msg.sender].add(rateDay1.mul(10));\n    } else if(now.sub(startDate) > 1 days && now.sub(startDate) <= 2 days) {\n       amount = msg.value.mul(11).div(2);\n       _averagePurchaseRate[msg.sender] = _averagePurchaseRate[msg.sender].add(rateDay2.mul(10).div(2));\n    } else if(now.sub(startDate) > 2 days && now.sub(startDate) <= 3 days) {\n       amount = msg.value.mul(5);\n       _averagePurchaseRate[msg.sender] = _averagePurchaseRate[msg.sender].add(rateDay3.mul(10));\n    } else if(now.sub(startDate) > 3 days && now.sub(startDate) <= 4 days) {\n       amount = msg.value.mul(9).div(2);\n       _averagePurchaseRate[msg.sender] = _averagePurchaseRate[msg.sender].add(rateDay4.mul(10).div(2));\n    } else if(now.sub(startDate) > 4 days) {\n       amount = msg.value.mul(4);\n       _averagePurchaseRate[msg.sender] = _averagePurchaseRate[msg.sender].add(rateDay5.mul(10));\n    }\n    \n    require(amount <= YFMSToken.balanceOf(address(this)));\n    // update constants.\n    totalSold = totalSold.add(amount);\n    collectedETH = collectedETH.add(msg.value);\n    // update address contribution + total contributions.\n    _contributions[msg.sender] = _contributions[msg.sender].add(amount);\n    _numberOfContributions[msg.sender] = _numberOfContributions[msg.sender].add(1);\n    // transfer the tokens.\n    YFMSToken.transfer(msg.sender, amount);\n    // check if soft cap is met.\n    if (!softCapMet && collectedETH >= 150 ether) {\n      softCapMet = true;\n    }\n  }\n\n  // Converts ETH to YFMS and sends new YFMS to the sender\n  function contribute() external payable {\n    require(startDate > 0 && now.sub(startDate) <= 7 days);\n    require(YFMSToken.balanceOf(address(this)) > 0);\n    require(msg.value >= 0.1 ether && msg.value <= 50 ether);\n    require(!presaleClosed);\n\n    if (now.sub(startDate) <= 1 days) {\n       amount = msg.value.mul(6);\n       _averagePurchaseRate[msg.sender] = _averagePurchaseRate[msg.sender].add(rateDay1.mul(10));\n    } else if(now.sub(startDate) > 1 days && now.sub(startDate) <= 2 days) {\n       amount = msg.value.mul(11).div(2);\n       _averagePurchaseRate[msg.sender] = _averagePurchaseRate[msg.sender].add(rateDay2.mul(10).div(2));\n    } else if(now.sub(startDate) > 2 days && now.sub(startDate) <= 3 days) {\n       amount = msg.value.mul(5);\n       _averagePurchaseRate[msg.sender] = _averagePurchaseRate[msg.sender].add(rateDay3.mul(10));\n    } else if(now.sub(startDate) > 3 days && now.sub(startDate) <= 4 days) {\n       amount = msg.value.mul(9).div(2);\n       _averagePurchaseRate[msg.sender] = _averagePurchaseRate[msg.sender].add(rateDay4.mul(10).div(2));\n    } else if(now.sub(startDate) > 4 days) {\n       amount = msg.value.mul(4);\n       _averagePurchaseRate[msg.sender] = _averagePurchaseRate[msg.sender].add(rateDay5.mul(10));\n    }\n        \n    require(amount <= YFMSToken.balanceOf(address(this)));\n    // update constants.\n    totalSold = totalSold.add(amount);\n    collectedETH = collectedETH.add(msg.value);\n    // update address contribution + total contributions.\n    _contributions[msg.sender] = _contributions[msg.sender].add(amount);\n    _numberOfContributions[msg.sender] = _numberOfContributions[msg.sender].add(1);\n    // transfer the tokens.\n    YFMSToken.transfer(msg.sender, amount);\n    // check if soft cap is met.\n    if (!softCapMet && collectedETH >= 150 ether) {\n      softCapMet = true;\n    }\n  }\n\n  function numberOfContributions(address from) public view returns(uint256) {\n    return _numberOfContributions[address(from)]; \n  }\n\n  function contributions(address from) public view returns(uint256) {\n    return _contributions[address(from)];\n  }\n\n  function averagePurchaseRate(address from) public view returns(uint256) {\n    return _averagePurchaseRate[address(from)];\n  }\n\n  // if the soft cap isn't met and the presale period ends (7 days) enable\n  // users to buy back their ether.\n  function buyBackETH(address payable from) public {\n    require(now.sub(startDate) > 7 days && !softCapMet);\n    require(_contributions[from] > 0);\n    uint256 exchangeRate = _averagePurchaseRate[from].div(10).div(_numberOfContributions[from]);\n    uint256 contribution = _contributions[from];\n    // remove funds from users contributions.\n    _contributions[from] = 0;\n    // transfer funds back to user.\n    from.transfer(contribution.div(exchangeRate));\n  }\n\n  // Function to withdraw raised ETH (staggered withdrawals)\n  // Only the contract owner can call this function\n  function withdrawETH() public {\n    require(msg.sender == owner && address(this).balance > 0);\n    require(softCapMet == true && presaleClosed == true);\n    uint256 withdrawAmount;\n    // first ether withdrawal (max 500 ETH)\n    if (ethWithdrawals == 0) {\n      if (collectedETH <= 500 ether) {\n        withdrawAmount = collectedETH;\n      } else {\n        withdrawAmount = 500 ether;\n      }\n    } else {\n      // remaining ether withdrawal (max 500 ETH per withdrawal)\n      // staggered in 7 day periods.\n      uint256 currDate = now;\n      // ensure that it has been at least 7 days.\n      require(currDate.sub(lastWithdrawal) >= 7 days);\n      if (collectedETH <= 500 ether) {\n        withdrawAmount = collectedETH;\n      } else {\n        withdrawAmount = 500 ether;\n      }\n    }\n    lastWithdrawal = now;\n    ethWithdrawals = ethWithdrawals.add(1);\n    collectedETH = collectedETH.sub(withdrawAmount);\n    owner.transfer(withdrawAmount);\n  }\n\n  function endPresale() public {\n    require(msg.sender == owner);\n    presaleClosed = true;\n  }\n\n  // Function to burn remaining YFMS (sale must be over to call)\n  // Only the contract owner can call this function\n  function burnYFMS() public {\n    require(msg.sender == owner && YFMSToken.balanceOf(address(this)) > 0 && now.sub(startDate) > 7 days);\n    // burn the left over.\n    YFMSToken.transfer(address(0), YFMSToken.balanceOf(address(this)));\n  }\n  \n  //Starts the sale\n  //Only the contract owner can call this function\n  function startSale() public {\n    require(msg.sender == owner && startDate==0);\n    startDate=now;\n  }\n  \n  //Function to query the supply of YFMS in the contract\n  function availableYFMS() public view returns(uint256) {\n    return YFMSToken.balanceOf(address(this));\n  }\n}\n",
  "sourcePath": "/home/spyder/Programming/Projects/YFMS/yfms-core/src/contracts/YFMSTokenSale.sol",
  "compiler": {
    "name": "solc",
    "version": "0.6.0+commit.26b70077.Emscripten.clang"
  },
  "schemaVersion": "3.2.3",
  "updatedAt": "2020-09-19T20:33:19.289Z",
  "networkType": "ethereum",
  "devdoc": {
    "methods": {}
  },
  "userdoc": {
    "methods": {}
  }
}